{
  "address": "0x10936d9A20eE4FD21647BAd1EeB993f7C6C23E75",
  "abi": [
    {
      "inputs": [
        {
          "internalType": "address",
          "name": "_tokenRewards",
          "type": "address"
        },
        {
          "internalType": "address",
          "name": "_tokenStaked",
          "type": "address"
        },
        {
          "internalType": "uint256",
          "name": "_rps",
          "type": "uint256"
        },
        {
          "internalType": "address",
          "name": "_admin",
          "type": "address"
        }
      ],
      "stateMutability": "nonpayable",
      "type": "constructor"
    },
    {
      "inputs": [],
      "name": "EnforcedPause",
      "type": "error"
    },
    {
      "inputs": [],
      "name": "ExpectedPause",
      "type": "error"
    },
    {
      "inputs": [
        {
          "internalType": "address",
          "name": "owner",
          "type": "address"
        }
      ],
      "name": "OwnableInvalidOwner",
      "type": "error"
    },
    {
      "inputs": [
        {
          "internalType": "address",
          "name": "account",
          "type": "address"
        }
      ],
      "name": "OwnableUnauthorizedAccount",
      "type": "error"
    },
    {
      "inputs": [
        {
          "internalType": "address",
          "name": "token",
          "type": "address"
        }
      ],
      "name": "SafeERC20FailedOperation",
      "type": "error"
    },
    {
      "anonymous": false,
      "inputs": [
        {
          "indexed": true,
          "internalType": "address",
          "name": "user",
          "type": "address"
        },
        {
          "indexed": false,
          "internalType": "uint256",
          "name": "amount",
          "type": "uint256"
        }
      ],
      "name": "Claimed",
      "type": "event"
    },
    {
      "anonymous": false,
      "inputs": [
        {
          "indexed": true,
          "internalType": "address",
          "name": "previousOwner",
          "type": "address"
        },
        {
          "indexed": true,
          "internalType": "address",
          "name": "newOwner",
          "type": "address"
        }
      ],
      "name": "OwnershipTransferred",
      "type": "event"
    },
    {
      "anonymous": false,
      "inputs": [
        {
          "indexed": false,
          "internalType": "address",
          "name": "account",
          "type": "address"
        }
      ],
      "name": "Paused",
      "type": "event"
    },
    {
      "anonymous": false,
      "inputs": [
        {
          "indexed": true,
          "internalType": "address",
          "name": "user",
          "type": "address"
        },
        {
          "indexed": false,
          "internalType": "uint256",
          "name": "amount",
          "type": "uint256"
        }
      ],
      "name": "Staked",
      "type": "event"
    },
    {
      "anonymous": false,
      "inputs": [
        {
          "indexed": false,
          "internalType": "address",
          "name": "account",
          "type": "address"
        }
      ],
      "name": "Unpaused",
      "type": "event"
    },
    {
      "anonymous": false,
      "inputs": [
        {
          "indexed": true,
          "internalType": "address",
          "name": "user",
          "type": "address"
        },
        {
          "indexed": false,
          "internalType": "uint256",
          "name": "amount",
          "type": "uint256"
        }
      ],
      "name": "Unstaked",
      "type": "event"
    },
    {
      "inputs": [],
      "name": "CALCULATE_PRECISION",
      "outputs": [
        {
          "internalType": "uint256",
          "name": "",
          "type": "uint256"
        }
      ],
      "stateMutability": "view",
      "type": "function"
    },
    {
      "inputs": [],
      "name": "admin",
      "outputs": [
        {
          "internalType": "address",
          "name": "",
          "type": "address"
        }
      ],
      "stateMutability": "view",
      "type": "function"
    },
    {
      "inputs": [],
      "name": "claimReward",
      "outputs": [],
      "stateMutability": "nonpayable",
      "type": "function"
    },
    {
      "inputs": [],
      "name": "globalIndex",
      "outputs": [
        {
          "internalType": "uint256",
          "name": "",
          "type": "uint256"
        }
      ],
      "stateMutability": "view",
      "type": "function"
    },
    {
      "inputs": [],
      "name": "lastUpdated",
      "outputs": [
        {
          "internalType": "uint256",
          "name": "",
          "type": "uint256"
        }
      ],
      "stateMutability": "view",
      "type": "function"
    },
    {
      "inputs": [],
      "name": "owner",
      "outputs": [
        {
          "internalType": "address",
          "name": "",
          "type": "address"
        }
      ],
      "stateMutability": "view",
      "type": "function"
    },
    {
      "inputs": [],
      "name": "pause",
      "outputs": [],
      "stateMutability": "nonpayable",
      "type": "function"
    },
    {
      "inputs": [],
      "name": "paused",
      "outputs": [
        {
          "internalType": "bool",
          "name": "",
          "type": "bool"
        }
      ],
      "stateMutability": "view",
      "type": "function"
    },
    {
      "inputs": [],
      "name": "renounceOwnership",
      "outputs": [],
      "stateMutability": "nonpayable",
      "type": "function"
    },
    {
      "inputs": [],
      "name": "rps",
      "outputs": [
        {
          "internalType": "uint256",
          "name": "",
          "type": "uint256"
        }
      ],
      "stateMutability": "view",
      "type": "function"
    },
    {
      "inputs": [
        {
          "internalType": "uint256",
          "name": "amount",
          "type": "uint256"
        }
      ],
      "name": "stake",
      "outputs": [],
      "stateMutability": "nonpayable",
      "type": "function"
    },
    {
      "inputs": [
        {
          "internalType": "address",
          "name": "",
          "type": "address"
        }
      ],
      "name": "stakers",
      "outputs": [
        {
          "internalType": "uint256",
          "name": "balance",
          "type": "uint256"
        },
        {
          "internalType": "uint256",
          "name": "index",
          "type": "uint256"
        },
        {
          "internalType": "uint256",
          "name": "pendingReward",
          "type": "uint256"
        }
      ],
      "stateMutability": "view",
      "type": "function"
    },
    {
      "inputs": [],
      "name": "tokenRewards",
      "outputs": [
        {
          "internalType": "address",
          "name": "",
          "type": "address"
        }
      ],
      "stateMutability": "view",
      "type": "function"
    },
    {
      "inputs": [],
      "name": "tokenStaked",
      "outputs": [
        {
          "internalType": "address",
          "name": "",
          "type": "address"
        }
      ],
      "stateMutability": "view",
      "type": "function"
    },
    {
      "inputs": [],
      "name": "totalStaked",
      "outputs": [
        {
          "internalType": "uint256",
          "name": "",
          "type": "uint256"
        }
      ],
      "stateMutability": "view",
      "type": "function"
    },
    {
      "inputs": [
        {
          "internalType": "address",
          "name": "newOwner",
          "type": "address"
        }
      ],
      "name": "transferOwnership",
      "outputs": [],
      "stateMutability": "nonpayable",
      "type": "function"
    },
    {
      "inputs": [],
      "name": "unpause",
      "outputs": [],
      "stateMutability": "nonpayable",
      "type": "function"
    },
    {
      "inputs": [
        {
          "internalType": "uint256",
          "name": "amount",
          "type": "uint256"
        }
      ],
      "name": "unstake",
      "outputs": [],
      "stateMutability": "nonpayable",
      "type": "function"
    },
    {
      "inputs": [
        {
          "internalType": "address",
          "name": "_admin",
          "type": "address"
        }
      ],
      "name": "updateAdmin",
      "outputs": [],
      "stateMutability": "nonpayable",
      "type": "function"
    },
    {
      "inputs": [
        {
          "internalType": "uint256",
          "name": "_rps",
          "type": "uint256"
        }
      ],
      "name": "updateConfig",
      "outputs": [],
      "stateMutability": "nonpayable",
      "type": "function"
    },
    {
      "inputs": [],
      "name": "updateGlobalIndex",
      "outputs": [],
      "stateMutability": "nonpayable",
      "type": "function"
    },
    {
      "inputs": [
        {
          "internalType": "address",
          "name": "account",
          "type": "address"
        }
      ],
      "name": "updateReward",
      "outputs": [],
      "stateMutability": "nonpayable",
      "type": "function"
    },
    {
      "inputs": [
        {
          "internalType": "address",
          "name": "account",
          "type": "address"
        }
      ],
      "name": "viewReward",
      "outputs": [
        {
          "internalType": "uint256",
          "name": "",
          "type": "uint256"
        }
      ],
      "stateMutability": "view",
      "type": "function"
    },
    {
      "inputs": [
        {
          "internalType": "address",
          "name": "token",
          "type": "address"
        },
        {
          "internalType": "uint256",
          "name": "amount",
          "type": "uint256"
        }
      ],
      "name": "withdraw",
      "outputs": [],
      "stateMutability": "nonpayable",
      "type": "function"
    }
  ],
  "transactionHash": "0xde13cb97e341c91928c8a2d4b9844fb24e783b34257091154322b128fc006d1f",
  "args": [
    "0x3e86CE92B3C55970B69FEa03110566f5B81CFA15",
    "0x3e86CE92B3C55970B69FEa03110566f5B81CFA15",
    "1000000000000000000",
    "0x690DC38a26ab11A6CA1D0B8c27070AD9828B6D69"
  ],
  "numDeployments": 1,
  "solcInputHash": "b1ee33737ad90ebf5d83af13a9c4b6b3",
  "bytecode": "0x60803461011457601f610cea38819003918201601f19168301916001600160401b0383118484101761011957808492608094604052833981010312610114576100478161012f565b6100536020830161012f565b61006460606040850151940161012f565b33156100fb576000549360018060a01b03809360405196338382167f8be0079c531659141344cd1fd0a4f28419497f9722a3daafe3b4186f6b6457e0600080a36001600160a81b0319163360ff60a01b191617600055600380546001600160a01b031990811697841697909717905560028054871691909216179055600755600180549093169116179055610ba690816101448239f35b604051631e4fbdf760e01b815260006004820152602490fd5b600080fd5b634e487b7160e01b600052604160045260246000fd5b51906001600160a01b03821682036101145756fe608060408181526004918236101561001657600080fd5b600092833560e01c918263091c76f51461089d5750816315b5cd79146108245781632e17de781461075357816333e81b601461073a5781633f4ba83a146106cc578163518f49d8146106a4578163574f704b146106815781635c975abb1461065c578163632447c91461063a578163715018a6146105d4578163817b1cd2146105b65781638456cb59146105465781638da5cb5b146105205781639168ae72146104d357816392b4bb50146104b4578163a694fc3a146103ca578163b88a802f146103b1578163d0b06f5d14610392578163d0eede671461028c578163d890a8701461026d578163e2f273bd14610221578163f2fde38b1461018957508063f3fef3a3146101575763f851a4401461012d57600080fd5b346101535781600319360112610153576020906001600160a01b03600154169051908152f35b5080fd5b503461015357366003190112610186576101836101726108c2565b61017a610ae4565b60243590610a7f565b80f35b80fd5b90503461021d57602036600319011261021d576101a46108c2565b906101ad610ae4565b6001600160a01b0380921692831561020757505082548273ffffffffffffffffffffffffffffffffffffffff198216178455167f8be0079c531659141344cd1fd0a4f28419497f9722a3daafe3b4186f6b6457e08380a380f35b51631e4fbdf760e01b8152908101849052602490fd5b8280fd5b8334610186576020366003190112610186576001600160a01b036102436108c2565b61024b610ae4565b1673ffffffffffffffffffffffffffffffffffffffff19600154161760015580f35b5050346101535781600319360112610153576020906005549051908152f35b90503461021d57602036600319011261021d576001600160a01b036102af6108c2565b1683526008602052818320906102c7600654426108dd565b6005549482549182151580610389575b61031a575b60208661031389670de0b6b3a764000061030c8a6103046002820154946001830154906108dd565b905490610900565b0490610933565b9051908152f35b61032990600797949754610900565b90670de0b6b3a76400009182810292818404149015171561037657506020955061036d6103139493610367670de0b6b3a76400009461030c94610913565b90610933565b958394506102dc565b634e487b7160e01b815260118752602490fd5b508015156102d7565b5050346101535781600319360112610153576020906006549051908152f35b8334610186578060031936011261018657610183610a14565b9190503461021d57602036600319011261021d578135916103e9610b10565b6103f1610940565b6103fa336109b4565b60025482516323b872dd60e01b602082015233602482015230604482015260648082018690528152906001600160a01b031660a0820167ffffffffffffffff8111838210176104a157845261044f9190610b31565b3384526008602052818420610465848254610933565b9055610472838254610933565b9055519081527f9e71bc8eea02a63969f509818f2dafb9254532904319f9dbda79b67bd34a5f3d60203392a280f35b634e487b7160e01b875260418452602487fd5b5050346101535781600319360112610153576020906007549051908152f35b50503461015357602036600319011261015357806060926001600160a01b036104fa6108c2565b168152600860205220805491600260018301549201549181519384526020840152820152f35b5050346101535781600319360112610153576001600160a01b0360209254169051908152f35b50503461015357816003193601126101535760207f62e78cea01bee320cd4e420270b5ea74000d11b0c9f74754ebdbfc544b05a25891610584610ae4565b61058c610b10565b7401000000000000000000000000000000000000000060ff60a01b1985541617845551338152a180f35b90503461021d578260031936011261021d5760209250549051908152f35b83346101865780600319360112610186576105ed610ae4565b806001600160a01b03815473ffffffffffffffffffffffffffffffffffffffff1981168355167f8be0079c531659141344cd1fd0a4f28419497f9722a3daafe3b4186f6b6457e08280a380f35b8334610186576020366003190112610186576101836106576108c2565b6109b4565b50503461015357816003193601126101535760ff6020925460a01c1690519015158152f35b50503461015357816003193601126101535760209051670de0b6b3a76400008152f35b5050346101535781600319360112610153576020906001600160a01b03600254169051908152f35b90503461021d578260031936011261021d576106e6610ae4565b82549060ff8260a01c161561072c57507f5db9ee0a495bf2e6ff9c91a7834c1ba4fdd244a5e8aa4e537bd38aeae4b073aa9160ff60a01b1960209216845551338152a180f35b8251638dfc202b60e01b8152fd5b8334610186578060031936011261018657610183610940565b9190503461021d57602036600319011261021d57813591610772610a14565b338452600860205281842080548481106107e15784610790916108dd565b90556107a7836001600160a01b0360025416610a7f565b6107b28382546108dd565b9055519081527f0f5bb82176feb1b5e747e28471aa92156a04d9f3ab9f45f28e2d704232b93f7560203392a280f35b835162461bcd60e51b8152602081850152601260248201527f6e6f7420656e6f7567682062616c616e636500000000000000000000000000006044820152606490fd5b9190503461021d57602036600319011261021d576001600160a01b0360015416330361085a5750610853610940565b3560075580f35b906020606492519162461bcd60e51b8352820152600a60248201527f6f6e6c792061646d696e000000000000000000000000000000000000000000006044820152fd5b8490346101535781600319360112610153576020906001600160a01b03600354168152f35b600435906001600160a01b03821682036108d857565b600080fd5b919082039182116108ea57565b634e487b7160e01b600052601160045260246000fd5b818102929181159184041417156108ea57565b811561091d570490565b634e487b7160e01b600052601260045260246000fd5b919082018092116108ea57565b61094c600654426108dd565b60045490811515806109ab575b610966575b505042600655565b61097290600754610900565b670de0b6b3a7640000908181029181830414901517156108ea576109a19161099991610913565b600554610933565b600555388061095e565b50801515610959565b6001600160a01b03906109c5610940565b166000526008602052604060002060055490610a0b6002670de0b6b3a7640000610a006109f860018601968754906108dd565b855490610900565b049201918254610933565b90556005549055565b610a1c610940565b610a25336109b4565b3360005260086020526002604060002001600081549155610a51816001600160a01b0360035416610a7f565b6040519081527fd8138f8a3f377c5259ca548e70e4c2de94f129f5a11036a15b69513cba2b426a60203392a2565b906040519063a9059cbb60e01b60208301523360248301526044820152604481526080810181811067ffffffffffffffff821117610ace57604052610acc916001600160a01b0316610b31565b565b634e487b7160e01b600052604160045260246000fd5b6001600160a01b03600054163303610af857565b60405163118cdaa760e01b8152336004820152602490fd5b60ff60005460a01c16610b1f57565b60405163d93c066560e01b8152600490fd5b906000602091828151910182855af115610b8d576000513d610b8457506001600160a01b0381163b155b610b625750565b604051635274afe760e01b81526001600160a01b039091166004820152602490fd5b60011415610b5b565b6040513d6000823e3d90fdfea164736f6c6343000818000a",
  "devdoc": {
    "errors": {
      "EnforcedPause()": [
        {
          "details": "The operation failed because the contract is paused."
        }
      ],
      "ExpectedPause()": [
        {
          "details": "The operation failed because the contract is not paused."
        }
      ],
      "OwnableInvalidOwner(address)": [
        {
          "details": "The owner is not a valid owner account. (eg. `address(0)`)"
        }
      ],
      "OwnableUnauthorizedAccount(address)": [
        {
          "details": "The caller account is not authorized to perform an operation."
        }
      ],
      "SafeERC20FailedOperation(address)": [
        {
          "details": "An operation with an ERC-20 token failed."
        }
      ]
    },
    "events": {
      "Paused(address)": {
        "details": "Emitted when the pause is triggered by `account`."
      },
      "Unpaused(address)": {
        "details": "Emitted when the pause is lifted by `account`."
      }
    },
    "kind": "dev",
    "methods": {
      "owner()": {
        "details": "Returns the address of the current owner."
      },
      "paused()": {
        "details": "Returns true if the contract is paused, and false otherwise."
      },
      "renounceOwnership()": {
        "details": "Leaves the contract without owner. It will not be possible to call `onlyOwner` functions. Can only be called by the current owner. NOTE: Renouncing ownership will leave the contract without an owner, thereby disabling any functionality that is only available to the owner."
      },
      "transferOwnership(address)": {
        "details": "Transfers ownership of the contract to a new account (`newOwner`). Can only be called by the current owner."
      }
    },
    "version": 1
  },
  "userdoc": {
    "kind": "user",
    "methods": {},
    "version": 1
  },
  "storageLayout": {
    "storage": [
      {
        "astId": 8,
        "contract": "contracts/VaultStaking.sol:VaultStaking",
        "label": "_owner",
        "offset": 0,
        "slot": "0",
        "type": "t_address"
      },
      {
        "astId": 763,
        "contract": "contracts/VaultStaking.sol:VaultStaking",
        "label": "_paused",
        "offset": 20,
        "slot": "0",
        "type": "t_bool"
      },
      {
        "astId": 899,
        "contract": "contracts/VaultStaking.sol:VaultStaking",
        "label": "admin",
        "offset": 0,
        "slot": "1",
        "type": "t_address"
      },
      {
        "astId": 901,
        "contract": "contracts/VaultStaking.sol:VaultStaking",
        "label": "tokenStaked",
        "offset": 0,
        "slot": "2",
        "type": "t_address"
      },
      {
        "astId": 903,
        "contract": "contracts/VaultStaking.sol:VaultStaking",
        "label": "tokenRewards",
        "offset": 0,
        "slot": "3",
        "type": "t_address"
      },
      {
        "astId": 905,
        "contract": "contracts/VaultStaking.sol:VaultStaking",
        "label": "totalStaked",
        "offset": 0,
        "slot": "4",
        "type": "t_uint256"
      },
      {
        "astId": 907,
        "contract": "contracts/VaultStaking.sol:VaultStaking",
        "label": "globalIndex",
        "offset": 0,
        "slot": "5",
        "type": "t_uint256"
      },
      {
        "astId": 909,
        "contract": "contracts/VaultStaking.sol:VaultStaking",
        "label": "lastUpdated",
        "offset": 0,
        "slot": "6",
        "type": "t_uint256"
      },
      {
        "astId": 911,
        "contract": "contracts/VaultStaking.sol:VaultStaking",
        "label": "rps",
        "offset": 0,
        "slot": "7",
        "type": "t_uint256"
      },
      {
        "astId": 926,
        "contract": "contracts/VaultStaking.sol:VaultStaking",
        "label": "stakers",
        "offset": 0,
        "slot": "8",
        "type": "t_mapping(t_address,t_struct(StakerInfo)921_storage)"
      }
    ],
    "types": {
      "t_address": {
        "encoding": "inplace",
        "label": "address",
        "numberOfBytes": "20"
      },
      "t_bool": {
        "encoding": "inplace",
        "label": "bool",
        "numberOfBytes": "1"
      },
      "t_mapping(t_address,t_struct(StakerInfo)921_storage)": {
        "encoding": "mapping",
        "key": "t_address",
        "label": "mapping(address => struct VaultStaking.StakerInfo)",
        "numberOfBytes": "32",
        "value": "t_struct(StakerInfo)921_storage"
      },
      "t_struct(StakerInfo)921_storage": {
        "encoding": "inplace",
        "label": "struct VaultStaking.StakerInfo",
        "members": [
          {
            "astId": 916,
            "contract": "contracts/VaultStaking.sol:VaultStaking",
            "label": "balance",
            "offset": 0,
            "slot": "0",
            "type": "t_uint256"
          },
          {
            "astId": 918,
            "contract": "contracts/VaultStaking.sol:VaultStaking",
            "label": "index",
            "offset": 0,
            "slot": "1",
            "type": "t_uint256"
          },
          {
            "astId": 920,
            "contract": "contracts/VaultStaking.sol:VaultStaking",
            "label": "pendingReward",
            "offset": 0,
            "slot": "2",
            "type": "t_uint256"
          }
        ],
        "numberOfBytes": "96"
      },
      "t_uint256": {
        "encoding": "inplace",
        "label": "uint256",
        "numberOfBytes": "32"
      }
    }
  }
}