{
  "address": "0x2B3fF1F53FC50C28249A2bD0D0f24ffbA73eb7C2",
  "abi": [
    {
      "inputs": [
        {
          "internalType": "address",
          "name": "_tokenRewards",
          "type": "address"
        },
        {
          "internalType": "address",
          "name": "_tokenStaked",
          "type": "address"
        },
        {
          "internalType": "uint256",
          "name": "_rps",
          "type": "uint256"
        }
      ],
      "stateMutability": "nonpayable",
      "type": "constructor"
    },
    {
      "inputs": [],
      "name": "EnforcedPause",
      "type": "error"
    },
    {
      "inputs": [],
      "name": "ExpectedPause",
      "type": "error"
    },
    {
      "inputs": [
        {
          "internalType": "address",
          "name": "owner",
          "type": "address"
        }
      ],
      "name": "OwnableInvalidOwner",
      "type": "error"
    },
    {
      "inputs": [
        {
          "internalType": "address",
          "name": "account",
          "type": "address"
        }
      ],
      "name": "OwnableUnauthorizedAccount",
      "type": "error"
    },
    {
      "inputs": [
        {
          "internalType": "address",
          "name": "token",
          "type": "address"
        }
      ],
      "name": "SafeERC20FailedOperation",
      "type": "error"
    },
    {
      "anonymous": false,
      "inputs": [
        {
          "indexed": true,
          "internalType": "address",
          "name": "user",
          "type": "address"
        },
        {
          "indexed": false,
          "internalType": "uint256",
          "name": "amount",
          "type": "uint256"
        }
      ],
      "name": "Claimed",
      "type": "event"
    },
    {
      "anonymous": false,
      "inputs": [
        {
          "indexed": true,
          "internalType": "address",
          "name": "previousOwner",
          "type": "address"
        },
        {
          "indexed": true,
          "internalType": "address",
          "name": "newOwner",
          "type": "address"
        }
      ],
      "name": "OwnershipTransferred",
      "type": "event"
    },
    {
      "anonymous": false,
      "inputs": [
        {
          "indexed": false,
          "internalType": "address",
          "name": "account",
          "type": "address"
        }
      ],
      "name": "Paused",
      "type": "event"
    },
    {
      "anonymous": false,
      "inputs": [
        {
          "indexed": true,
          "internalType": "address",
          "name": "user",
          "type": "address"
        },
        {
          "indexed": false,
          "internalType": "uint256",
          "name": "amount",
          "type": "uint256"
        }
      ],
      "name": "Staked",
      "type": "event"
    },
    {
      "anonymous": false,
      "inputs": [
        {
          "indexed": false,
          "internalType": "address",
          "name": "account",
          "type": "address"
        }
      ],
      "name": "Unpaused",
      "type": "event"
    },
    {
      "anonymous": false,
      "inputs": [
        {
          "indexed": true,
          "internalType": "address",
          "name": "user",
          "type": "address"
        },
        {
          "indexed": false,
          "internalType": "uint256",
          "name": "amount",
          "type": "uint256"
        }
      ],
      "name": "Unstaked",
      "type": "event"
    },
    {
      "inputs": [],
      "name": "CACULATE_PRECISION",
      "outputs": [
        {
          "internalType": "uint256",
          "name": "",
          "type": "uint256"
        }
      ],
      "stateMutability": "view",
      "type": "function"
    },
    {
      "inputs": [],
      "name": "admin",
      "outputs": [
        {
          "internalType": "address",
          "name": "",
          "type": "address"
        }
      ],
      "stateMutability": "view",
      "type": "function"
    },
    {
      "inputs": [],
      "name": "claimReward",
      "outputs": [],
      "stateMutability": "nonpayable",
      "type": "function"
    },
    {
      "inputs": [],
      "name": "globalIndex",
      "outputs": [
        {
          "internalType": "uint256",
          "name": "",
          "type": "uint256"
        }
      ],
      "stateMutability": "view",
      "type": "function"
    },
    {
      "inputs": [],
      "name": "lastUpdated",
      "outputs": [
        {
          "internalType": "uint256",
          "name": "",
          "type": "uint256"
        }
      ],
      "stateMutability": "view",
      "type": "function"
    },
    {
      "inputs": [],
      "name": "owner",
      "outputs": [
        {
          "internalType": "address",
          "name": "",
          "type": "address"
        }
      ],
      "stateMutability": "view",
      "type": "function"
    },
    {
      "inputs": [],
      "name": "pause",
      "outputs": [],
      "stateMutability": "nonpayable",
      "type": "function"
    },
    {
      "inputs": [],
      "name": "paused",
      "outputs": [
        {
          "internalType": "bool",
          "name": "",
          "type": "bool"
        }
      ],
      "stateMutability": "view",
      "type": "function"
    },
    {
      "inputs": [],
      "name": "renounceOwnership",
      "outputs": [],
      "stateMutability": "nonpayable",
      "type": "function"
    },
    {
      "inputs": [],
      "name": "rps",
      "outputs": [
        {
          "internalType": "uint256",
          "name": "",
          "type": "uint256"
        }
      ],
      "stateMutability": "view",
      "type": "function"
    },
    {
      "inputs": [
        {
          "internalType": "uint256",
          "name": "amount",
          "type": "uint256"
        }
      ],
      "name": "stake",
      "outputs": [],
      "stateMutability": "nonpayable",
      "type": "function"
    },
    {
      "inputs": [
        {
          "internalType": "address",
          "name": "",
          "type": "address"
        }
      ],
      "name": "stakers",
      "outputs": [
        {
          "internalType": "uint256",
          "name": "balance",
          "type": "uint256"
        },
        {
          "internalType": "uint256",
          "name": "index",
          "type": "uint256"
        },
        {
          "internalType": "uint256",
          "name": "pendingReward",
          "type": "uint256"
        }
      ],
      "stateMutability": "view",
      "type": "function"
    },
    {
      "inputs": [],
      "name": "tokenRewards",
      "outputs": [
        {
          "internalType": "address",
          "name": "",
          "type": "address"
        }
      ],
      "stateMutability": "view",
      "type": "function"
    },
    {
      "inputs": [],
      "name": "tokenStaked",
      "outputs": [
        {
          "internalType": "address",
          "name": "",
          "type": "address"
        }
      ],
      "stateMutability": "view",
      "type": "function"
    },
    {
      "inputs": [],
      "name": "totalStaked",
      "outputs": [
        {
          "internalType": "uint256",
          "name": "",
          "type": "uint256"
        }
      ],
      "stateMutability": "view",
      "type": "function"
    },
    {
      "inputs": [
        {
          "internalType": "address",
          "name": "newOwner",
          "type": "address"
        }
      ],
      "name": "transferOwnership",
      "outputs": [],
      "stateMutability": "nonpayable",
      "type": "function"
    },
    {
      "inputs": [],
      "name": "unpause",
      "outputs": [],
      "stateMutability": "nonpayable",
      "type": "function"
    },
    {
      "inputs": [
        {
          "internalType": "uint256",
          "name": "amount",
          "type": "uint256"
        }
      ],
      "name": "unstake",
      "outputs": [],
      "stateMutability": "nonpayable",
      "type": "function"
    },
    {
      "inputs": [
        {
          "internalType": "uint256",
          "name": "_rps",
          "type": "uint256"
        }
      ],
      "name": "updateConfig",
      "outputs": [],
      "stateMutability": "nonpayable",
      "type": "function"
    },
    {
      "inputs": [],
      "name": "updateGlobalIndex",
      "outputs": [],
      "stateMutability": "nonpayable",
      "type": "function"
    },
    {
      "inputs": [
        {
          "internalType": "address",
          "name": "account",
          "type": "address"
        }
      ],
      "name": "updateReward",
      "outputs": [],
      "stateMutability": "nonpayable",
      "type": "function"
    },
    {
      "inputs": [
        {
          "internalType": "address",
          "name": "token",
          "type": "address"
        },
        {
          "internalType": "uint256",
          "name": "amount",
          "type": "uint256"
        }
      ],
      "name": "withdraw",
      "outputs": [],
      "stateMutability": "nonpayable",
      "type": "function"
    }
  ],
  "transactionHash": "0xaaf3fdba0f76a3cfcb6eb143d8e340e1479626a6434399d23d315d60aa8a2f48",
  "args": [
    "0x3e86CE92B3C55970B69FEa03110566f5B81CFA15",
    "0x3e86CE92B3C55970B69FEa03110566f5B81CFA15",
    "1000000000000000000"
  ],
  "numDeployments": 1,
  "solcInputHash": "388756260805b4eef761ae26a5905177",
  "bytecode": "0x6080346100fb57601f610b1038819003918201601f19168301916001600160401b03831184841017610100578084926060946040528339810103126100fb5761004781610116565b604061005560208401610116565b9201519033156100e2576000549260018060a01b039060405194338382167f8be0079c531659141344cd1fd0a4f28419497f9722a3daafe3b4186f6b6457e0600080a36001600160a81b0319163360ff60a01b191617600055600380546001600160a01b03199081169484169490941790556002805490931691161790556007556109e5908161012b8239f35b604051631e4fbdf760e01b815260006004820152602490fd5b600080fd5b634e487b7160e01b600052604160045260246000fd5b51906001600160a01b03821682036100fb5756fe608060408181526004918236101561001657600080fd5b600092833560e01c918263091c76f5146106e65750816315b5cd79146106bc5781632e17de78146105eb57816333e81b60146105d25781633f4ba83a14610564578163518f49d81461053c5781635c975abb14610517578163632447c9146104f5578163715018a61461048f578163817b1cd2146104715781638456cb59146104015781638da5cb5b146103db5781639168ae721461038e57816392b4bb501461036f578163a694fc3a14610285578163abe89a5814610262578163b88a802f14610249578163d0b06f5d1461022a578163d890a8701461020b578163f2fde38b1461017357508063f3fef3a3146101415763f851a4401461011757600080fd5b3461013d578160031936011261013d576020906001600160a01b03600154169051908152f35b5080fd5b503461013d573660031901126101705761016d61015c61070b565b6101646108be565b602435906108ea565b80f35b80fd5b9050346102075760203660031901126102075761018e61070b565b906101976108be565b6001600160a01b038092169283156101f157505082548273ffffffffffffffffffffffffffffffffffffffff198216178455167f8be0079c531659141344cd1fd0a4f28419497f9722a3daafe3b4186f6b6457e08380a380f35b51631e4fbdf760e01b8152908101849052602490fd5b8280fd5b50503461013d578160031936011261013d576020906005549051908152f35b50503461013d578160031936011261013d576020906006549051908152f35b833461017057806003193601126101705761016d610853565b50503461013d578160031936011261013d5760209051670de0b6b3a76400008152f35b91905034610207576020366003190112610207578135916102a461094f565b6102ac610769565b6102b5336107f3565b60025482516323b872dd60e01b602082015233602482015230604482015260648082018690528152906001600160a01b031660a0820167ffffffffffffffff81118382101761035c57845261030a9190610970565b338452600860205281842061032084825461075c565b905561032d83825461075c565b9055519081527f9e71bc8eea02a63969f509818f2dafb9254532904319f9dbda79b67bd34a5f3d60203392a280f35b634e487b7160e01b875260418452602487fd5b50503461013d578160031936011261013d576020906007549051908152f35b50503461013d57602036600319011261013d57806060926001600160a01b036103b561070b565b168152600860205220805491600260018301549201549181519384526020840152820152f35b50503461013d578160031936011261013d576001600160a01b0360209254169051908152f35b50503461013d578160031936011261013d5760207f62e78cea01bee320cd4e420270b5ea74000d11b0c9f74754ebdbfc544b05a2589161043f6108be565b61044761094f565b7401000000000000000000000000000000000000000060ff60a01b1985541617845551338152a180f35b90503461020757826003193601126102075760209250549051908152f35b83346101705780600319360112610170576104a86108be565b806001600160a01b03815473ffffffffffffffffffffffffffffffffffffffff1981168355167f8be0079c531659141344cd1fd0a4f28419497f9722a3daafe3b4186f6b6457e08280a380f35b83346101705760203660031901126101705761016d61051261070b565b6107f3565b50503461013d578160031936011261013d5760ff6020925460a01c1690519015158152f35b50503461013d578160031936011261013d576020906001600160a01b03600254169051908152f35b90503461020757826003193601126102075761057e6108be565b82549060ff8260a01c16156105c457507f5db9ee0a495bf2e6ff9c91a7834c1ba4fdd244a5e8aa4e537bd38aeae4b073aa9160ff60a01b1960209216845551338152a180f35b8251638dfc202b60e01b8152fd5b833461017057806003193601126101705761016d610769565b919050346102075760203660031901126102075781359161060a610853565b33845260086020528184208054848110610679578461062891610726565b905561063f836001600160a01b03600254166108ea565b61064a838254610726565b9055519081527f0f5bb82176feb1b5e747e28471aa92156a04d9f3ab9f45f28e2d704232b93f7560203392a280f35b835162461bcd60e51b8152602081850152601260248201527f6e6f7420656e6f7567682062616c616e636500000000000000000000000000006044820152606490fd5b83903461013d57602036600319011261013d576106d76108be565b6106df610769565b3560075580f35b84903461013d578160031936011261013d576020906001600160a01b03600354168152f35b600435906001600160a01b038216820361072157565b600080fd5b9190820391821161073357565b634e487b7160e01b600052601160045260246000fd5b8181029291811591840414171561073357565b9190820180921161073357565b61077560065442610726565b6004548015918215806107ea575b610791575b50505042600655565b61079d90600754610749565b91670de0b6b3a764000092838102938185041490151715610733576107d4576107c9910460055461075c565b600555388080610788565b634e487b7160e01b600052601260045260246000fd5b50801515610783565b6001600160a01b0390610804610769565b16600052600860205260406000206005549061084a6002670de0b6b3a764000061083f6108376001860196875490610726565b855490610749565b04920191825461075c565b90556005549055565b61085b610769565b610864336107f3565b3360005260086020526002604060002001600081549155610890816001600160a01b03600354166108ea565b6040519081527fd8138f8a3f377c5259ca548e70e4c2de94f129f5a11036a15b69513cba2b426a60203392a2565b6001600160a01b036000541633036108d257565b60405163118cdaa760e01b8152336004820152602490fd5b906040519063a9059cbb60e01b60208301523360248301526044820152604481526080810181811067ffffffffffffffff82111761093957604052610937916001600160a01b0316610970565b565b634e487b7160e01b600052604160045260246000fd5b60ff60005460a01c1661095e57565b60405163d93c066560e01b8152600490fd5b906000602091828151910182855af1156109cc576000513d6109c357506001600160a01b0381163b155b6109a15750565b604051635274afe760e01b81526001600160a01b039091166004820152602490fd5b6001141561099a565b6040513d6000823e3d90fdfea164736f6c6343000818000a",
  "devdoc": {
    "errors": {
      "EnforcedPause()": [
        {
          "details": "The operation failed because the contract is paused."
        }
      ],
      "ExpectedPause()": [
        {
          "details": "The operation failed because the contract is not paused."
        }
      ],
      "OwnableInvalidOwner(address)": [
        {
          "details": "The owner is not a valid owner account. (eg. `address(0)`)"
        }
      ],
      "OwnableUnauthorizedAccount(address)": [
        {
          "details": "The caller account is not authorized to perform an operation."
        }
      ],
      "SafeERC20FailedOperation(address)": [
        {
          "details": "An operation with an ERC-20 token failed."
        }
      ]
    },
    "events": {
      "Paused(address)": {
        "details": "Emitted when the pause is triggered by `account`."
      },
      "Unpaused(address)": {
        "details": "Emitted when the pause is lifted by `account`."
      }
    },
    "kind": "dev",
    "methods": {
      "owner()": {
        "details": "Returns the address of the current owner."
      },
      "paused()": {
        "details": "Returns true if the contract is paused, and false otherwise."
      },
      "renounceOwnership()": {
        "details": "Leaves the contract without owner. It will not be possible to call `onlyOwner` functions. Can only be called by the current owner. NOTE: Renouncing ownership will leave the contract without an owner, thereby disabling any functionality that is only available to the owner."
      },
      "transferOwnership(address)": {
        "details": "Transfers ownership of the contract to a new account (`newOwner`). Can only be called by the current owner."
      }
    },
    "version": 1
  },
  "userdoc": {
    "kind": "user",
    "methods": {},
    "version": 1
  },
  "storageLayout": {
    "storage": [
      {
        "astId": 8,
        "contract": "contracts/VaultStaking.sol:VaultStaking",
        "label": "_owner",
        "offset": 0,
        "slot": "0",
        "type": "t_address"
      },
      {
        "astId": 763,
        "contract": "contracts/VaultStaking.sol:VaultStaking",
        "label": "_paused",
        "offset": 20,
        "slot": "0",
        "type": "t_bool"
      },
      {
        "astId": 899,
        "contract": "contracts/VaultStaking.sol:VaultStaking",
        "label": "admin",
        "offset": 0,
        "slot": "1",
        "type": "t_address"
      },
      {
        "astId": 901,
        "contract": "contracts/VaultStaking.sol:VaultStaking",
        "label": "tokenStaked",
        "offset": 0,
        "slot": "2",
        "type": "t_address"
      },
      {
        "astId": 903,
        "contract": "contracts/VaultStaking.sol:VaultStaking",
        "label": "tokenRewards",
        "offset": 0,
        "slot": "3",
        "type": "t_address"
      },
      {
        "astId": 905,
        "contract": "contracts/VaultStaking.sol:VaultStaking",
        "label": "totalStaked",
        "offset": 0,
        "slot": "4",
        "type": "t_uint256"
      },
      {
        "astId": 907,
        "contract": "contracts/VaultStaking.sol:VaultStaking",
        "label": "globalIndex",
        "offset": 0,
        "slot": "5",
        "type": "t_uint256"
      },
      {
        "astId": 909,
        "contract": "contracts/VaultStaking.sol:VaultStaking",
        "label": "lastUpdated",
        "offset": 0,
        "slot": "6",
        "type": "t_uint256"
      },
      {
        "astId": 911,
        "contract": "contracts/VaultStaking.sol:VaultStaking",
        "label": "rps",
        "offset": 0,
        "slot": "7",
        "type": "t_uint256"
      },
      {
        "astId": 926,
        "contract": "contracts/VaultStaking.sol:VaultStaking",
        "label": "stakers",
        "offset": 0,
        "slot": "8",
        "type": "t_mapping(t_address,t_struct(StakerInfo)921_storage)"
      }
    ],
    "types": {
      "t_address": {
        "encoding": "inplace",
        "label": "address",
        "numberOfBytes": "20"
      },
      "t_bool": {
        "encoding": "inplace",
        "label": "bool",
        "numberOfBytes": "1"
      },
      "t_mapping(t_address,t_struct(StakerInfo)921_storage)": {
        "encoding": "mapping",
        "key": "t_address",
        "label": "mapping(address => struct VaultStaking.StakerInfo)",
        "numberOfBytes": "32",
        "value": "t_struct(StakerInfo)921_storage"
      },
      "t_struct(StakerInfo)921_storage": {
        "encoding": "inplace",
        "label": "struct VaultStaking.StakerInfo",
        "members": [
          {
            "astId": 916,
            "contract": "contracts/VaultStaking.sol:VaultStaking",
            "label": "balance",
            "offset": 0,
            "slot": "0",
            "type": "t_uint256"
          },
          {
            "astId": 918,
            "contract": "contracts/VaultStaking.sol:VaultStaking",
            "label": "index",
            "offset": 0,
            "slot": "1",
            "type": "t_uint256"
          },
          {
            "astId": 920,
            "contract": "contracts/VaultStaking.sol:VaultStaking",
            "label": "pendingReward",
            "offset": 0,
            "slot": "2",
            "type": "t_uint256"
          }
        ],
        "numberOfBytes": "96"
      },
      "t_uint256": {
        "encoding": "inplace",
        "label": "uint256",
        "numberOfBytes": "32"
      }
    }
  }
}