{
  "address": "0x6ddBFDee4Fe0B1A3415C0cc309A335ad2475811c",
  "abi": [
    {
      "inputs": [
        {
          "internalType": "address",
          "name": "_tokenRewards",
          "type": "address"
        },
        {
          "internalType": "address",
          "name": "_tokenStaked",
          "type": "address"
        },
        {
          "internalType": "uint256",
          "name": "_rps",
          "type": "uint256"
        },
        {
          "internalType": "address",
          "name": "_admin",
          "type": "address"
        },
        {
          "internalType": "uint256",
          "name": "_timeUnlock",
          "type": "uint256"
        }
      ],
      "stateMutability": "nonpayable",
      "type": "constructor"
    },
    {
      "inputs": [],
      "name": "EnforcedPause",
      "type": "error"
    },
    {
      "inputs": [],
      "name": "ExpectedPause",
      "type": "error"
    },
    {
      "inputs": [
        {
          "internalType": "address",
          "name": "owner",
          "type": "address"
        }
      ],
      "name": "OwnableInvalidOwner",
      "type": "error"
    },
    {
      "inputs": [
        {
          "internalType": "address",
          "name": "account",
          "type": "address"
        }
      ],
      "name": "OwnableUnauthorizedAccount",
      "type": "error"
    },
    {
      "inputs": [
        {
          "internalType": "address",
          "name": "token",
          "type": "address"
        }
      ],
      "name": "SafeERC20FailedOperation",
      "type": "error"
    },
    {
      "anonymous": false,
      "inputs": [
        {
          "indexed": true,
          "internalType": "address",
          "name": "user",
          "type": "address"
        },
        {
          "indexed": false,
          "internalType": "uint256",
          "name": "amount",
          "type": "uint256"
        }
      ],
      "name": "Claimed",
      "type": "event"
    },
    {
      "anonymous": false,
      "inputs": [
        {
          "indexed": true,
          "internalType": "address",
          "name": "previousOwner",
          "type": "address"
        },
        {
          "indexed": true,
          "internalType": "address",
          "name": "newOwner",
          "type": "address"
        }
      ],
      "name": "OwnershipTransferred",
      "type": "event"
    },
    {
      "anonymous": false,
      "inputs": [
        {
          "indexed": false,
          "internalType": "address",
          "name": "account",
          "type": "address"
        }
      ],
      "name": "Paused",
      "type": "event"
    },
    {
      "anonymous": false,
      "inputs": [
        {
          "indexed": true,
          "internalType": "address",
          "name": "user",
          "type": "address"
        },
        {
          "indexed": false,
          "internalType": "uint256",
          "name": "amount",
          "type": "uint256"
        }
      ],
      "name": "Staked",
      "type": "event"
    },
    {
      "anonymous": false,
      "inputs": [
        {
          "indexed": false,
          "internalType": "address",
          "name": "account",
          "type": "address"
        }
      ],
      "name": "Unpaused",
      "type": "event"
    },
    {
      "anonymous": false,
      "inputs": [
        {
          "indexed": true,
          "internalType": "address",
          "name": "user",
          "type": "address"
        },
        {
          "indexed": false,
          "internalType": "uint256",
          "name": "amount",
          "type": "uint256"
        }
      ],
      "name": "Unstaked",
      "type": "event"
    },
    {
      "inputs": [],
      "name": "CALCULATE_PRECISION",
      "outputs": [
        {
          "internalType": "uint256",
          "name": "",
          "type": "uint256"
        }
      ],
      "stateMutability": "view",
      "type": "function"
    },
    {
      "inputs": [],
      "name": "admin",
      "outputs": [
        {
          "internalType": "address",
          "name": "",
          "type": "address"
        }
      ],
      "stateMutability": "view",
      "type": "function"
    },
    {
      "inputs": [],
      "name": "claimReward",
      "outputs": [],
      "stateMutability": "nonpayable",
      "type": "function"
    },
    {
      "inputs": [],
      "name": "globalIndex",
      "outputs": [
        {
          "internalType": "uint256",
          "name": "",
          "type": "uint256"
        }
      ],
      "stateMutability": "view",
      "type": "function"
    },
    {
      "inputs": [],
      "name": "lastUpdated",
      "outputs": [
        {
          "internalType": "uint256",
          "name": "",
          "type": "uint256"
        }
      ],
      "stateMutability": "view",
      "type": "function"
    },
    {
      "inputs": [
        {
          "internalType": "address",
          "name": "",
          "type": "address"
        }
      ],
      "name": "newStakers",
      "outputs": [
        {
          "internalType": "bool",
          "name": "",
          "type": "bool"
        }
      ],
      "stateMutability": "view",
      "type": "function"
    },
    {
      "inputs": [],
      "name": "owner",
      "outputs": [
        {
          "internalType": "address",
          "name": "",
          "type": "address"
        }
      ],
      "stateMutability": "view",
      "type": "function"
    },
    {
      "inputs": [],
      "name": "pause",
      "outputs": [],
      "stateMutability": "nonpayable",
      "type": "function"
    },
    {
      "inputs": [],
      "name": "paused",
      "outputs": [
        {
          "internalType": "bool",
          "name": "",
          "type": "bool"
        }
      ],
      "stateMutability": "view",
      "type": "function"
    },
    {
      "inputs": [],
      "name": "renounceOwnership",
      "outputs": [],
      "stateMutability": "nonpayable",
      "type": "function"
    },
    {
      "inputs": [],
      "name": "rps",
      "outputs": [
        {
          "internalType": "uint256",
          "name": "",
          "type": "uint256"
        }
      ],
      "stateMutability": "view",
      "type": "function"
    },
    {
      "inputs": [
        {
          "internalType": "uint256",
          "name": "amount",
          "type": "uint256"
        }
      ],
      "name": "stake",
      "outputs": [],
      "stateMutability": "nonpayable",
      "type": "function"
    },
    {
      "inputs": [
        {
          "internalType": "address",
          "name": "",
          "type": "address"
        }
      ],
      "name": "stakers",
      "outputs": [
        {
          "internalType": "uint256",
          "name": "balance",
          "type": "uint256"
        },
        {
          "internalType": "uint256",
          "name": "index",
          "type": "uint256"
        },
        {
          "internalType": "uint256",
          "name": "pendingReward",
          "type": "uint256"
        }
      ],
      "stateMutability": "view",
      "type": "function"
    },
    {
      "inputs": [],
      "name": "timeUnlock",
      "outputs": [
        {
          "internalType": "uint256",
          "name": "",
          "type": "uint256"
        }
      ],
      "stateMutability": "view",
      "type": "function"
    },
    {
      "inputs": [],
      "name": "tokenRewards",
      "outputs": [
        {
          "internalType": "address",
          "name": "",
          "type": "address"
        }
      ],
      "stateMutability": "view",
      "type": "function"
    },
    {
      "inputs": [],
      "name": "tokenStaked",
      "outputs": [
        {
          "internalType": "address",
          "name": "",
          "type": "address"
        }
      ],
      "stateMutability": "view",
      "type": "function"
    },
    {
      "inputs": [],
      "name": "totalStaked",
      "outputs": [
        {
          "internalType": "uint256",
          "name": "",
          "type": "uint256"
        }
      ],
      "stateMutability": "view",
      "type": "function"
    },
    {
      "inputs": [],
      "name": "totalStaker",
      "outputs": [
        {
          "internalType": "uint256",
          "name": "",
          "type": "uint256"
        }
      ],
      "stateMutability": "view",
      "type": "function"
    },
    {
      "inputs": [
        {
          "internalType": "address",
          "name": "newOwner",
          "type": "address"
        }
      ],
      "name": "transferOwnership",
      "outputs": [],
      "stateMutability": "nonpayable",
      "type": "function"
    },
    {
      "inputs": [],
      "name": "unpause",
      "outputs": [],
      "stateMutability": "nonpayable",
      "type": "function"
    },
    {
      "inputs": [
        {
          "internalType": "uint256",
          "name": "amount",
          "type": "uint256"
        }
      ],
      "name": "unstake",
      "outputs": [],
      "stateMutability": "nonpayable",
      "type": "function"
    },
    {
      "inputs": [
        {
          "internalType": "uint256",
          "name": "amount",
          "type": "uint256"
        }
      ],
      "name": "unstakeWithoutClaimReward",
      "outputs": [],
      "stateMutability": "nonpayable",
      "type": "function"
    },
    {
      "inputs": [
        {
          "internalType": "address",
          "name": "_admin",
          "type": "address"
        }
      ],
      "name": "updateAdmin",
      "outputs": [],
      "stateMutability": "nonpayable",
      "type": "function"
    },
    {
      "inputs": [],
      "name": "updateGlobalIndex",
      "outputs": [],
      "stateMutability": "nonpayable",
      "type": "function"
    },
    {
      "inputs": [
        {
          "internalType": "address",
          "name": "account",
          "type": "address"
        }
      ],
      "name": "updateReward",
      "outputs": [],
      "stateMutability": "nonpayable",
      "type": "function"
    },
    {
      "inputs": [
        {
          "internalType": "uint256",
          "name": "_rps",
          "type": "uint256"
        }
      ],
      "name": "updateRps",
      "outputs": [],
      "stateMutability": "nonpayable",
      "type": "function"
    },
    {
      "inputs": [
        {
          "internalType": "uint256",
          "name": "_timeUnlock",
          "type": "uint256"
        }
      ],
      "name": "updateTimeUnlock",
      "outputs": [],
      "stateMutability": "nonpayable",
      "type": "function"
    },
    {
      "inputs": [
        {
          "internalType": "address",
          "name": "account",
          "type": "address"
        }
      ],
      "name": "viewReward",
      "outputs": [
        {
          "internalType": "uint256",
          "name": "",
          "type": "uint256"
        }
      ],
      "stateMutability": "view",
      "type": "function"
    },
    {
      "inputs": [
        {
          "internalType": "address",
          "name": "token",
          "type": "address"
        },
        {
          "internalType": "uint256",
          "name": "amount",
          "type": "uint256"
        }
      ],
      "name": "withdraw",
      "outputs": [],
      "stateMutability": "nonpayable",
      "type": "function"
    }
  ],
  "transactionHash": "0xa819eee4e294845932d8cfe87ceec4a08c4702dd5778d0aa4004556e0df4711d",
  "args": [
    "0xFD4bdaBA49D9FA683407d492A81aBb24C7cE0015",
    "0xFD4bdaBA49D9FA683407d492A81aBb24C7cE0015",
    "1000000000000000000",
    "0x48d66a65693dB44d3ca05CBb54e0a806096e2eDA",
    1740048238
  ],
  "numDeployments": 1,
  "solcInputHash": "637328986113a7f3d10892452c8efbf9",
  "bytecode": "0x60803461012057601f61103a38819003918201601f19168301916001600160401b038311848410176101255780849260a094604052833981010312610120576100478161013b565b906100546020820161013b565b9160408201519260806100696060850161013b565b930151923315610107576000549460018060a01b03809360405197338382167f8be0079c531659141344cd1fd0a4f28419497f9722a3daafe3b4186f6b6457e0600080a36001600160a81b0319163360ff60a01b191617600055600380546001600160a01b031990811697841697909717905560028054871691909216179055600755600180549093169116179055600955610eea90816101508239f35b604051631e4fbdf760e01b815260006004820152602490fd5b600080fd5b634e487b7160e01b600052604160045260246000fd5b51906001600160a01b03821682036101205756fe608060408181526004918236101561001657600080fd5b600092833560e01c91826303f35bce14610b9f57508163091c76f514610b775781632e17de7814610ab757816333e81b6014610a9e5781633f4ba83a14610a305781634cc9fc1d146109b75781634e20f6921461090e578163518f49d8146108e6578163574f704b146108c35781635c975abb1461089e578163632447c914610879578163715018a614610813578163817b1cd2146107f55781638456cb59146107855781638da5cb5b1461075f5781638eb599a4146107405781639168ae72146106f357816392b4bb50146106d45781639b3f691b146106b2578163a5879de314610693578163a694fc3a1461055b578163b88a802f146104d4578163d0b06f5d146104b5578163d0eede67146103af578163d890a87014610390578163e2f273bd14610341578163f2fde38b146102ad578163f3fef3a31461018e575063f851a4401461016457600080fd5b3461018a578160031936011261018a576020906001600160a01b03600154169051908152f35b5080fd5b919050346102a957806003193601126102a9576101bd6101ac610bd9565b6101b4610e28565b60243590610dc3565b602460206001600160a01b03600254168351928380926370a0823160e01b825230888301525afa90811561029f578491610241575b508254116101fe578280f35b906020606492519162461bcd60e51b8352820152601960248201527f6e6f7420656e6f7567682062616c616e6365207374616b6564000000000000006044820152fd5b905060203d602011610298575b601f8101601f1916820167ffffffffffffffff8111838210176102855760209183918552810103126102815751386101f2565b8380fd5b634e487b7160e01b865260418552602486fd5b503d61024e565b82513d86823e3d90fd5b8280fd5b9050346102a95760203660031901126102a9576102c8610bd9565b906102d1610e28565b6001600160a01b0380921692831561032b57505082548273ffffffffffffffffffffffffffffffffffffffff198216178455167f8be0079c531659141344cd1fd0a4f28419497f9722a3daafe3b4186f6b6457e08380a380f35b51631e4fbdf760e01b8152908101849052602490fd5b833461038d57602036600319011261038d576001600160a01b03610363610bd9565b61036b610e28565b1673ffffffffffffffffffffffffffffffffffffffff19600154161760015580f35b80fd5b50503461018a578160031936011261018a576020906005549051908152f35b9050346102a95760203660031901126102a9576001600160a01b036103d2610bd9565b168352600a602052818320906103ea60065442610c8c565b60055494825491821515806104ac575b61043d575b60208661043689670de0b6b3a764000061042f8a610427600282015494600183015490610c8c565b905490610caf565b0490610ce2565b9051908152f35b61044c90600797949754610caf565b90670de0b6b3a764000091828102928184041490151715610499575060209550610490610436949361048a670de0b6b3a76400009461042f94610cc2565b90610ce2565b958394506103ff565b634e487b7160e01b815260118752602490fd5b508015156103fa565b50503461018a578160031936011261018a576020906006549051908152f35b50503461018a578160031936011261018a576104f4600954421015610bf4565b6104fc610cef565b61050533610d63565b338252600a60205260028183200190828254925561052e826001600160a01b0360035416610dc3565b519081527fd8138f8a3f377c5259ca548e70e4c2de94f129f5a11036a15b69513cba2b426a60203392a280f35b919050346102a95760203660031901126102a95781359161057a610e54565b610582610cef565b61058b33610d63565b338452600b602052818420805460ff81161561065e575b505060025482516323b872dd60e01b602082015233602482015230604482015260648082018690528152906001600160a01b031660a0820167ffffffffffffffff81118382101761064b5784526105f99190610e75565b338452600a60205281842061060f848254610ce2565b905561061c838254610ce2565b9055519081527f9e71bc8eea02a63969f509818f2dafb9254532904319f9dbda79b67bd34a5f3d60203392a280f35b634e487b7160e01b875260418452602487fd5b60019060ff1916179055600854600181018091116106805760085538806105a2565b634e487b7160e01b855260118252602485fd5b50503461018a578160031936011261018a576020906008549051908152f35b83903461018a57602036600319011261018a576106cd610e28565b3560095580f35b50503461018a578160031936011261018a576020906007549051908152f35b50503461018a57602036600319011261018a57806060926001600160a01b0361071a610bd9565b168152600a60205220805491600260018301549201549181519384526020840152820152f35b50503461018a578160031936011261018a576020906009549051908152f35b50503461018a578160031936011261018a576001600160a01b0360209254169051908152f35b50503461018a578160031936011261018a5760207f62e78cea01bee320cd4e420270b5ea74000d11b0c9f74754ebdbfc544b05a258916107c3610e28565b6107cb610e54565b7401000000000000000000000000000000000000000060ff60a01b1985541617845551338152a180f35b9050346102a957826003193601126102a95760209250549051908152f35b833461038d578060031936011261038d5761082c610e28565b806001600160a01b03815473ffffffffffffffffffffffffffffffffffffffff1981168355167f8be0079c531659141344cd1fd0a4f28419497f9722a3daafe3b4186f6b6457e08280a380f35b833461038d57602036600319011261038d5761089b610896610bd9565b610d63565b80f35b50503461018a578160031936011261018a5760ff6020925460a01c1690519015158152f35b50503461018a578160031936011261018a5760209051670de0b6b3a76400008152f35b50503461018a578160031936011261018a576020906001600160a01b03600254169051908152f35b919050346102a95760203660031901126102a957813591610933600954421015610bf4565b61093b610cef565b61094433610d63565b338452600a60205281842061096684825461096182821015610c40565b610c8c565b905561097d836001600160a01b0360025416610dc3565b610988838254610c8c565b9055519081527f0f5bb82176feb1b5e747e28471aa92156a04d9f3ab9f45f28e2d704232b93f7560203392a280f35b919050346102a95760203660031901126102a9576001600160a01b036001541633036109ed57506109e6610cef565b3560075580f35b906020606492519162461bcd60e51b8352820152600a60248201527f6f6e6c792061646d696e000000000000000000000000000000000000000000006044820152fd5b9050346102a957826003193601126102a957610a4a610e28565b82549060ff8260a01c1615610a9057507f5db9ee0a495bf2e6ff9c91a7834c1ba4fdd244a5e8aa4e537bd38aeae4b073aa9160ff60a01b1960209216845551338152a180f35b8251638dfc202b60e01b8152fd5b833461038d578060031936011261038d5761089b610cef565b919050346102a95760203660031901126102a957813591610ae5600954421015610ae081610bf4565b610bf4565b610aed610cef565b610af633610d63565b338452600a60205261097d8360028487200186815491556001600160a01b0390610b24818360035416610dc3565b85519081527fd8138f8a3f377c5259ca548e70e4c2de94f129f5a11036a15b69513cba2b426a60203392a2338752600a602052848720610b6c83825461096182821015610c40565b905560025416610dc3565b50503461018a578160031936011261018a576020906001600160a01b03600354169051908152f35b849084346102a95760203660031901126102a95760ff906020936001600160a01b03610bc9610bd9565b168152600b855220541615158152f35b600435906001600160a01b0382168203610bef57565b600080fd5b15610bfb57565b60405162461bcd60e51b815260206004820152600d60248201527f7374696c6c206c6f636b696e67000000000000000000000000000000000000006044820152606490fd5b15610c4757565b60405162461bcd60e51b815260206004820152601260248201527f6e6f7420656e6f7567682062616c616e636500000000000000000000000000006044820152606490fd5b91908203918211610c9957565b634e487b7160e01b600052601160045260246000fd5b81810292918115918404141715610c9957565b8115610ccc570490565b634e487b7160e01b600052601260045260246000fd5b91908201809211610c9957565b610cfb60065442610c8c565b6004549081151580610d5a575b610d15575b505042600655565b610d2190600754610caf565b670de0b6b3a764000090818102918183041490151715610c9957610d5091610d4891610cc2565b600554610ce2565b6005553880610d0d565b50801515610d08565b6001600160a01b0390610d74610cef565b16600052600a602052604060002060055490610dba6002670de0b6b3a7640000610daf610da76001860196875490610c8c565b855490610caf565b049201918254610ce2565b90556005549055565b906040519063a9059cbb60e01b60208301523360248301526044820152604481526080810181811067ffffffffffffffff821117610e1257604052610e10916001600160a01b0316610e75565b565b634e487b7160e01b600052604160045260246000fd5b6001600160a01b03600054163303610e3c57565b60405163118cdaa760e01b8152336004820152602490fd5b60ff60005460a01c16610e6357565b60405163d93c066560e01b8152600490fd5b906000602091828151910182855af115610ed1576000513d610ec857506001600160a01b0381163b155b610ea65750565b604051635274afe760e01b81526001600160a01b039091166004820152602490fd5b60011415610e9f565b6040513d6000823e3d90fdfea164736f6c6343000818000a",
  "devdoc": {
    "errors": {
      "EnforcedPause()": [
        {
          "details": "The operation failed because the contract is paused."
        }
      ],
      "ExpectedPause()": [
        {
          "details": "The operation failed because the contract is not paused."
        }
      ],
      "OwnableInvalidOwner(address)": [
        {
          "details": "The owner is not a valid owner account. (eg. `address(0)`)"
        }
      ],
      "OwnableUnauthorizedAccount(address)": [
        {
          "details": "The caller account is not authorized to perform an operation."
        }
      ],
      "SafeERC20FailedOperation(address)": [
        {
          "details": "An operation with an ERC-20 token failed."
        }
      ]
    },
    "events": {
      "Paused(address)": {
        "details": "Emitted when the pause is triggered by `account`."
      },
      "Unpaused(address)": {
        "details": "Emitted when the pause is lifted by `account`."
      }
    },
    "kind": "dev",
    "methods": {
      "owner()": {
        "details": "Returns the address of the current owner."
      },
      "paused()": {
        "details": "Returns true if the contract is paused, and false otherwise."
      },
      "renounceOwnership()": {
        "details": "Leaves the contract without owner. It will not be possible to call `onlyOwner` functions. Can only be called by the current owner. NOTE: Renouncing ownership will leave the contract without an owner, thereby disabling any functionality that is only available to the owner."
      },
      "transferOwnership(address)": {
        "details": "Transfers ownership of the contract to a new account (`newOwner`). Can only be called by the current owner."
      }
    },
    "version": 1
  },
  "userdoc": {
    "kind": "user",
    "methods": {},
    "version": 1
  },
  "storageLayout": {
    "storage": [
      {
        "astId": 8,
        "contract": "contracts/ERC20Staking.sol:ERC20Staking",
        "label": "_owner",
        "offset": 0,
        "slot": "0",
        "type": "t_address"
      },
      {
        "astId": 940,
        "contract": "contracts/ERC20Staking.sol:ERC20Staking",
        "label": "_paused",
        "offset": 20,
        "slot": "0",
        "type": "t_bool"
      },
      {
        "astId": 1476,
        "contract": "contracts/ERC20Staking.sol:ERC20Staking",
        "label": "admin",
        "offset": 0,
        "slot": "1",
        "type": "t_address"
      },
      {
        "astId": 1478,
        "contract": "contracts/ERC20Staking.sol:ERC20Staking",
        "label": "tokenStaked",
        "offset": 0,
        "slot": "2",
        "type": "t_address"
      },
      {
        "astId": 1480,
        "contract": "contracts/ERC20Staking.sol:ERC20Staking",
        "label": "tokenRewards",
        "offset": 0,
        "slot": "3",
        "type": "t_address"
      },
      {
        "astId": 1482,
        "contract": "contracts/ERC20Staking.sol:ERC20Staking",
        "label": "totalStaked",
        "offset": 0,
        "slot": "4",
        "type": "t_uint256"
      },
      {
        "astId": 1484,
        "contract": "contracts/ERC20Staking.sol:ERC20Staking",
        "label": "globalIndex",
        "offset": 0,
        "slot": "5",
        "type": "t_uint256"
      },
      {
        "astId": 1486,
        "contract": "contracts/ERC20Staking.sol:ERC20Staking",
        "label": "lastUpdated",
        "offset": 0,
        "slot": "6",
        "type": "t_uint256"
      },
      {
        "astId": 1488,
        "contract": "contracts/ERC20Staking.sol:ERC20Staking",
        "label": "rps",
        "offset": 0,
        "slot": "7",
        "type": "t_uint256"
      },
      {
        "astId": 1490,
        "contract": "contracts/ERC20Staking.sol:ERC20Staking",
        "label": "totalStaker",
        "offset": 0,
        "slot": "8",
        "type": "t_uint256"
      },
      {
        "astId": 1492,
        "contract": "contracts/ERC20Staking.sol:ERC20Staking",
        "label": "timeUnlock",
        "offset": 0,
        "slot": "9",
        "type": "t_uint256"
      },
      {
        "astId": 1500,
        "contract": "contracts/ERC20Staking.sol:ERC20Staking",
        "label": "stakers",
        "offset": 0,
        "slot": "10",
        "type": "t_mapping(t_address,t_struct(StakerInfo)1474_storage)"
      },
      {
        "astId": 1504,
        "contract": "contracts/ERC20Staking.sol:ERC20Staking",
        "label": "newStakers",
        "offset": 0,
        "slot": "11",
        "type": "t_mapping(t_address,t_bool)"
      }
    ],
    "types": {
      "t_address": {
        "encoding": "inplace",
        "label": "address",
        "numberOfBytes": "20"
      },
      "t_bool": {
        "encoding": "inplace",
        "label": "bool",
        "numberOfBytes": "1"
      },
      "t_mapping(t_address,t_bool)": {
        "encoding": "mapping",
        "key": "t_address",
        "label": "mapping(address => bool)",
        "numberOfBytes": "32",
        "value": "t_bool"
      },
      "t_mapping(t_address,t_struct(StakerInfo)1474_storage)": {
        "encoding": "mapping",
        "key": "t_address",
        "label": "mapping(address => struct ERC20Staking.StakerInfo)",
        "numberOfBytes": "32",
        "value": "t_struct(StakerInfo)1474_storage"
      },
      "t_struct(StakerInfo)1474_storage": {
        "encoding": "inplace",
        "label": "struct ERC20Staking.StakerInfo",
        "members": [
          {
            "astId": 1469,
            "contract": "contracts/ERC20Staking.sol:ERC20Staking",
            "label": "balance",
            "offset": 0,
            "slot": "0",
            "type": "t_uint256"
          },
          {
            "astId": 1471,
            "contract": "contracts/ERC20Staking.sol:ERC20Staking",
            "label": "index",
            "offset": 0,
            "slot": "1",
            "type": "t_uint256"
          },
          {
            "astId": 1473,
            "contract": "contracts/ERC20Staking.sol:ERC20Staking",
            "label": "pendingReward",
            "offset": 0,
            "slot": "2",
            "type": "t_uint256"
          }
        ],
        "numberOfBytes": "96"
      },
      "t_uint256": {
        "encoding": "inplace",
        "label": "uint256",
        "numberOfBytes": "32"
      }
    }
  }
}