{
  "address": "0xeb1D0087dbc99B78ABEE509B35490e98De1CE1d0",
  "abi": [
    {
      "inputs": [
        {
          "internalType": "address",
          "name": "_factory",
          "type": "address"
        },
        {
          "internalType": "address",
          "name": "_nonfungiblePositionManager",
          "type": "address"
        },
        {
          "internalType": "address",
          "name": "_tokenReward",
          "type": "address"
        },
        {
          "internalType": "address",
          "name": "_pool",
          "type": "address"
        },
        {
          "internalType": "uint256",
          "name": "_timeStart",
          "type": "uint256"
        },
        {
          "internalType": "uint256",
          "name": "_timeEnd",
          "type": "uint256"
        },
        {
          "internalType": "uint256",
          "name": "_totalReward",
          "type": "uint256"
        }
      ],
      "stateMutability": "nonpayable",
      "type": "constructor"
    },
    {
      "inputs": [],
      "name": "ReentrancyGuardReentrantCall",
      "type": "error"
    },
    {
      "inputs": [],
      "name": "WrongReceiver",
      "type": "error"
    },
    {
      "inputs": [],
      "name": "endTime",
      "outputs": [
        {
          "internalType": "uint256",
          "name": "",
          "type": "uint256"
        }
      ],
      "stateMutability": "view",
      "type": "function"
    },
    {
      "inputs": [],
      "name": "factory",
      "outputs": [
        {
          "internalType": "contract IUniswapV3Factory",
          "name": "",
          "type": "address"
        }
      ],
      "stateMutability": "view",
      "type": "function"
    },
    {
      "inputs": [],
      "name": "nonfungiblePositionManager",
      "outputs": [
        {
          "internalType": "contract INonfungiblePositionManager",
          "name": "",
          "type": "address"
        }
      ],
      "stateMutability": "view",
      "type": "function"
    },
    {
      "inputs": [
        {
          "internalType": "address",
          "name": "",
          "type": "address"
        },
        {
          "internalType": "address",
          "name": "_from",
          "type": "address"
        },
        {
          "internalType": "uint256",
          "name": "_tokenId",
          "type": "uint256"
        },
        {
          "internalType": "bytes",
          "name": "",
          "type": "bytes"
        }
      ],
      "name": "onERC721Received",
      "outputs": [
        {
          "internalType": "bytes4",
          "name": "",
          "type": "bytes4"
        }
      ],
      "stateMutability": "nonpayable",
      "type": "function"
    },
    {
      "inputs": [],
      "name": "pool",
      "outputs": [
        {
          "internalType": "contract IUniswapV3Pool",
          "name": "",
          "type": "address"
        }
      ],
      "stateMutability": "view",
      "type": "function"
    },
    {
      "inputs": [
        {
          "internalType": "uint256",
          "name": "",
          "type": "uint256"
        }
      ],
      "name": "positionInfos",
      "outputs": [
        {
          "internalType": "address",
          "name": "owner",
          "type": "address"
        },
        {
          "internalType": "uint256",
          "name": "index",
          "type": "uint256"
        },
        {
          "internalType": "int24",
          "name": "tickLower",
          "type": "int24"
        },
        {
          "internalType": "int24",
          "name": "tickUpper",
          "type": "int24"
        },
        {
          "internalType": "uint128",
          "name": "liquidity",
          "type": "uint128"
        },
        {
          "internalType": "uint160",
          "name": "indexTimeInsideX128",
          "type": "uint160"
        }
      ],
      "stateMutability": "view",
      "type": "function"
    },
    {
      "inputs": [
        {
          "internalType": "address",
          "name": "",
          "type": "address"
        }
      ],
      "name": "rewards",
      "outputs": [
        {
          "internalType": "uint256",
          "name": "",
          "type": "uint256"
        }
      ],
      "stateMutability": "view",
      "type": "function"
    },
    {
      "inputs": [],
      "name": "startTime",
      "outputs": [
        {
          "internalType": "uint256",
          "name": "",
          "type": "uint256"
        }
      ],
      "stateMutability": "view",
      "type": "function"
    },
    {
      "inputs": [],
      "name": "tokenReward",
      "outputs": [
        {
          "internalType": "contract IERC20",
          "name": "",
          "type": "address"
        }
      ],
      "stateMutability": "view",
      "type": "function"
    },
    {
      "inputs": [
        {
          "internalType": "uint256",
          "name": "_tokenId",
          "type": "uint256"
        }
      ],
      "name": "unstake",
      "outputs": [],
      "stateMutability": "nonpayable",
      "type": "function"
    }
  ],
  "transactionHash": "0x5aa02559572b52f51105ee1cf1600980cf5626a41a4ec38573c75a8d8d94431b",
  "args": [
    "0x0bfbcf9fa4f9c56b0f40a671ad40e0805a091865",
    "0x427bf5b37357632377ecbec9de3626c71a5396c1",
    "0xFD4bdaBA49D9FA683407d492A81aBb24C7cE0015",
    "0x719f061FcC15eBEa2f045Def463594cFb7d8f69a",
    1740020400,
    1755658800,
    "40000000000000000000000000"
  ],
  "numDeployments": 1,
  "solcInputHash": "dd07ae031f54d23015817b84076b9334",
  "bytecode": "0x610100346100f757601f610ce238819003918201601f19168301916001600160401b038311848410176100fc5780849260e0946040528339810103126100f75761004881610112565b9061005560208201610112565b9161006260408301610112565b9261006f60608401610112565b60808401519260c060a086015195015195600160005560018060a01b038094818094166080521660a0521660e0521660c052600655600755600355604051610bbb908161012782396080518160b1015260a05181818160f80152818161033b0152610636015260c0518181816102170152818161059b015261072a015260e051816101590152f35b600080fd5b634e487b7160e01b600052604160045260246000fd5b51906001600160a01b03821682036100f75756fe608060408181526004918236101561001657600080fd5b600092833560e01c9182630700037d146109ac57508163150b7a02146105bf57816316f0115b1461057b57816317893e3c146104fb5781632e17de781461019b575080633197cbb61461017d5780636e66f6e91461013a57806378e979251461011c578063b44a2722146100d95763c45a01551461009357600080fd5b346100d557816003193601126100d557602090516001600160a01b037f0000000000000000000000000000000000000000000000000000000000000000168152f35b5080fd5b50346100d557816003193601126100d557602090516001600160a01b037f0000000000000000000000000000000000000000000000000000000000000000168152f35b50346100d557816003193601126100d5576020906006549051908152f35b50346100d557816003193601126100d557602090516001600160a01b037f0000000000000000000000000000000000000000000000000000000000000000168152f35b50346100d557816003193601126100d5576020906007549051908152f35b8383346100d557602092836003193601126104f75780356101ba610ad8565b808452600185528284206001600160a01b03908181541680156104b45733036104715760028181015486516351c403f960e11b815281830b878201908152601883901c90930b6020840152909291606090829081906040010381877f0000000000000000000000000000000000000000000000000000000000000000165afa908115610467578891610435575b50600354906005549085821694600654906fffffffffffffffffffffffffffffffff6007549160301c169288600388015416908342106104225789160388811161040f57881688848202169381850414901517156103fc57866102b96102c8936102c193428110904218024218610ab5565b60801b610ab5565b8285610afb565b94018581116103e9578593926102fd9273ffffffffffffffffffffffffffffffffffffffff1986889416911617600555610ab5565b600355541686526002875284862080549182018092116103d657966001918798558387525284600385822082815582600182015582600282015501557f000000000000000000000000000000000000000000000000000000000000000016803b156103d2576064859285519687938492632142170760e11b8452308885015233602485015260448401525af180156103c85761039c575b836001815580f35b67ffffffffffffffff83116103b5575052818080610394565b634e487b7160e01b845260419052602483fd5b82513d86823e3d90fd5b8480fd5b634e487b7160e01b875260118552602487fd5b634e487b7160e01b8a526011885260248afd5b634e487b7160e01b8c5260118a5260248cfd5b634e487b7160e01b8d5260118b5260248dfd5b634e487b7160e01b8e5260018c5260248efd5b610457915060603d606011610460575b61044f81836109fb565b810190610a72565b50905089610247565b503d610445565b87513d8a823e3d90fd5b845162461bcd60e51b8152808501889052600960248201527f4e6f74206f776e657200000000000000000000000000000000000000000000006044820152606490fd5b855162461bcd60e51b8152808601899052601760248201527f506f736974696f6e20646f6573206e6f742065786973740000000000000000006044820152606490fd5b8280fd5b9050346104f75760203660031901126104f75760c09282913581526001602052206fffffffffffffffffffffffffffffffff6001600160a01b03918281541693600182015493600360028401549301541693815195865260208601528160020b908501528060181c60020b606085015260301c16608083015260a0820152f35b5050346100d557816003193601126100d557602090516001600160a01b037f0000000000000000000000000000000000000000000000000000000000000000168152f35b9050346104f75760803660031901126104f7576105da6109e0565b50602435906001600160a01b03918281168091036103d2576044359267ffffffffffffffff926064358481116109a857366023820112156109a857808201358581116109a457369101602401116109a057610633610ad8565b817f00000000000000000000000000000000000000000000000000000000000000001680330361095d5786519460c086019081118682101761094a57875287855260208501948886528781019089825260608101938a855260808201928b845260a08301928c84528c8c519a8b9763133f757160e31b89528d868a01528860246101809e8f935afa801561094057828091819a829f8392610867575b50506fffffffffffffffffffffffffffffffff168852600290810b808a529d900b808b5262ffffff998a169095528a169052881690528a516351c403f960e11b815291820190815260208101989098529687906040010387867f00000000000000000000000000000000000000000000000000000000000000001691815a93606094fa96871561085d57918a9795939160019997959360209c97610834575b506003949596978952898c5265ffffff0000008b8a209451927fffffffffffffffffffff000000000000000000000000000000000000000000007fffffffffffffffffffff00000000000000000000000000000000ffffffffffff600288019675ffffffffffffffffffffffffffffffff0000000000008854945160181b9673ffffffffffffffffffffffffffffffffffffffff199d8e8c5416178b555160301b16961616911617911617179055019216908254161790555551630a85bd0160e11b8152f35b6003959697506108529060603d6060116104605761044f81836109fb565b50905096959461076e565b89513d8c823e3d90fd5b95509a505050509a5086813d8311610939575b61088481836109fb565b810103126109355785516bffffffffffffffffffffffff811603610935576108ae60208701610a33565b506108ba8c8701610a33565b996108c760608801610a33565b60808801519162ffffff83168303610931578a809360a08b016108e990610a47565b9a6108f660c08201610a47565b9f61090360e08301610a55565b916109116101408201610a55565b506101600161091f90610a55565b5094919b9f90919394958193506106cf565b8f80fd5b8c80fd5b503d61087a565b8e513d84823e3d90fd5b634e487b7160e01b895260418352602489fd5b865162461bcd60e51b8152602081840152601860248201527f496e76616c696420506f736974696f6e204d616e6167657200000000000000006044820152606490fd5b8680fd5b8880fd5b8780fd5b849084346104f75760203660031901126104f7576020926001600160a01b036109d36109e0565b1681526002845220548152f35b600435906001600160a01b03821682036109f657565b600080fd5b90601f8019910116810190811067ffffffffffffffff821117610a1d57604052565b634e487b7160e01b600052604160045260246000fd5b51906001600160a01b03821682036109f657565b51908160020b82036109f657565b51906fffffffffffffffffffffffffffffffff821682036109f657565b908160609103126109f65780518060060b81036109f6579160208201516001600160a01b03811681036109f65760409092015163ffffffff811681036109f65790565b91908203918211610ac257565b634e487b7160e01b600052601160045260246000fd5b600260005414610ae9576002600055565b604051633ee5aeb560e01b8152600490fd5b918183029160001981850993838086109503948086039514610b8a5784831115610b71579082910981600003821680920460028082600302188083028203028083028203028083028203028083028203028083028203028092029003029360018380600003040190848311900302920304170290565b82634e487b71600052156003026011186020526024601cfd5b505080925015610b98570490565b634e487b7160e01b600052601260045260246000fdfea164736f6c6343000818000a",
  "devdoc": {
    "errors": {
      "ReentrancyGuardReentrantCall()": [
        {
          "details": "Unauthorized reentrant call."
        }
      ]
    },
    "kind": "dev",
    "methods": {},
    "version": 1
  },
  "userdoc": {
    "kind": "user",
    "methods": {},
    "version": 1
  },
  "storageLayout": {
    "storage": [
      {
        "astId": 816,
        "contract": "contracts/UniswapV3Staker.sol:UniswapV3Staker",
        "label": "_status",
        "offset": 0,
        "slot": "0",
        "type": "t_uint256"
      },
      {
        "astId": 5234,
        "contract": "contracts/UniswapV3Staker.sol:UniswapV3Staker",
        "label": "positionInfos",
        "offset": 0,
        "slot": "1",
        "type": "t_mapping(t_uint256,t_struct(PositionInfo)5204_storage)"
      },
      {
        "astId": 5238,
        "contract": "contracts/UniswapV3Staker.sol:UniswapV3Staker",
        "label": "rewards",
        "offset": 0,
        "slot": "2",
        "type": "t_mapping(t_address,t_uint256)"
      },
      {
        "astId": 5240,
        "contract": "contracts/UniswapV3Staker.sol:UniswapV3Staker",
        "label": "totalRewardUnclaimed",
        "offset": 0,
        "slot": "3",
        "type": "t_uint256"
      },
      {
        "astId": 5242,
        "contract": "contracts/UniswapV3Staker.sol:UniswapV3Staker",
        "label": "totalRewandClaim",
        "offset": 0,
        "slot": "4",
        "type": "t_uint256"
      },
      {
        "astId": 5244,
        "contract": "contracts/UniswapV3Staker.sol:UniswapV3Staker",
        "label": "totalSecondsClaimedX128",
        "offset": 0,
        "slot": "5",
        "type": "t_uint160"
      },
      {
        "astId": 5246,
        "contract": "contracts/UniswapV3Staker.sol:UniswapV3Staker",
        "label": "startTime",
        "offset": 0,
        "slot": "6",
        "type": "t_uint256"
      },
      {
        "astId": 5248,
        "contract": "contracts/UniswapV3Staker.sol:UniswapV3Staker",
        "label": "endTime",
        "offset": 0,
        "slot": "7",
        "type": "t_uint256"
      }
    ],
    "types": {
      "t_address": {
        "encoding": "inplace",
        "label": "address",
        "numberOfBytes": "20"
      },
      "t_int24": {
        "encoding": "inplace",
        "label": "int24",
        "numberOfBytes": "3"
      },
      "t_mapping(t_address,t_uint256)": {
        "encoding": "mapping",
        "key": "t_address",
        "label": "mapping(address => uint256)",
        "numberOfBytes": "32",
        "value": "t_uint256"
      },
      "t_mapping(t_uint256,t_struct(PositionInfo)5204_storage)": {
        "encoding": "mapping",
        "key": "t_uint256",
        "label": "mapping(uint256 => struct UniswapV3Staker.PositionInfo)",
        "numberOfBytes": "32",
        "value": "t_struct(PositionInfo)5204_storage"
      },
      "t_struct(PositionInfo)5204_storage": {
        "encoding": "inplace",
        "label": "struct UniswapV3Staker.PositionInfo",
        "members": [
          {
            "astId": 5193,
            "contract": "contracts/UniswapV3Staker.sol:UniswapV3Staker",
            "label": "owner",
            "offset": 0,
            "slot": "0",
            "type": "t_address"
          },
          {
            "astId": 5195,
            "contract": "contracts/UniswapV3Staker.sol:UniswapV3Staker",
            "label": "index",
            "offset": 0,
            "slot": "1",
            "type": "t_uint256"
          },
          {
            "astId": 5197,
            "contract": "contracts/UniswapV3Staker.sol:UniswapV3Staker",
            "label": "tickLower",
            "offset": 0,
            "slot": "2",
            "type": "t_int24"
          },
          {
            "astId": 5199,
            "contract": "contracts/UniswapV3Staker.sol:UniswapV3Staker",
            "label": "tickUpper",
            "offset": 3,
            "slot": "2",
            "type": "t_int24"
          },
          {
            "astId": 5201,
            "contract": "contracts/UniswapV3Staker.sol:UniswapV3Staker",
            "label": "liquidity",
            "offset": 6,
            "slot": "2",
            "type": "t_uint128"
          },
          {
            "astId": 5203,
            "contract": "contracts/UniswapV3Staker.sol:UniswapV3Staker",
            "label": "indexTimeInsideX128",
            "offset": 0,
            "slot": "3",
            "type": "t_uint160"
          }
        ],
        "numberOfBytes": "128"
      },
      "t_uint128": {
        "encoding": "inplace",
        "label": "uint128",
        "numberOfBytes": "16"
      },
      "t_uint160": {
        "encoding": "inplace",
        "label": "uint160",
        "numberOfBytes": "20"
      },
      "t_uint256": {
        "encoding": "inplace",
        "label": "uint256",
        "numberOfBytes": "32"
      }
    }
  }
}