{
    "address": "0x52f9A676aa537a4e76d520ab97034E4828634482",
    "abi": [
        {
            "inputs": [
                {
                    "internalType": "address",
                    "name": "_admin",
                    "type": "address"
                },
                {
                    "internalType": "address",
                    "name": "_positionManager",
                    "type": "address"
                },
                {
                    "internalType": "address",
                    "name": "_token0",
                    "type": "address"
                },
                {
                    "internalType": "address",
                    "name": "_token1",
                    "type": "address"
                },
                {
                    "internalType": "uint24",
                    "name": "_feePool",
                    "type": "uint24"
                },
                {
                    "internalType": "int24",
                    "name": "_tickLower",
                    "type": "int24"
                },
                {
                    "internalType": "int24",
                    "name": "_tickUpper",
                    "type": "int24"
                },
                {
                    "internalType": "address",
                    "name": "_tokenRewards",
                    "type": "address"
                },
                {
                    "internalType": "uint256",
                    "name": "_rps",
                    "type": "uint256"
                },
                {
                    "internalType": "uint256",
                    "name": "_timeUnlock",
                    "type": "uint256"
                }
            ],
            "stateMutability": "nonpayable",
            "type": "constructor"
        },
        {
            "inputs": [],
            "name": "EnforcedPause",
            "type": "error"
        },
        {
            "inputs": [],
            "name": "ExpectedPause",
            "type": "error"
        },
        {
            "inputs": [],
            "name": "InvalidInitialization",
            "type": "error"
        },
        {
            "inputs": [],
            "name": "NotInitializing",
            "type": "error"
        },
        {
            "inputs": [
                {
                    "internalType": "address",
                    "name": "owner",
                    "type": "address"
                }
            ],
            "name": "OwnableInvalidOwner",
            "type": "error"
        },
        {
            "inputs": [
                {
                    "internalType": "address",
                    "name": "account",
                    "type": "address"
                }
            ],
            "name": "OwnableUnauthorizedAccount",
            "type": "error"
        },
        {
            "inputs": [],
            "name": "ReentrancyGuardReentrantCall",
            "type": "error"
        },
        {
            "inputs": [
                {
                    "internalType": "address",
                    "name": "token",
                    "type": "address"
                }
            ],
            "name": "SafeERC20FailedOperation",
            "type": "error"
        },
        {
            "anonymous": false,
            "inputs": [
                {
                    "indexed": true,
                    "internalType": "address",
                    "name": "user",
                    "type": "address"
                },
                {
                    "indexed": false,
                    "internalType": "uint256",
                    "name": "amount",
                    "type": "uint256"
                }
            ],
            "name": "Claimed",
            "type": "event"
        },
        {
            "anonymous": false,
            "inputs": [
                {
                    "indexed": false,
                    "internalType": "uint64",
                    "name": "version",
                    "type": "uint64"
                }
            ],
            "name": "Initialized",
            "type": "event"
        },
        {
            "anonymous": false,
            "inputs": [
                {
                    "indexed": true,
                    "internalType": "address",
                    "name": "previousOwner",
                    "type": "address"
                },
                {
                    "indexed": true,
                    "internalType": "address",
                    "name": "newOwner",
                    "type": "address"
                }
            ],
            "name": "OwnershipTransferred",
            "type": "event"
        },
        {
            "anonymous": false,
            "inputs": [
                {
                    "indexed": false,
                    "internalType": "address",
                    "name": "account",
                    "type": "address"
                }
            ],
            "name": "Paused",
            "type": "event"
        },
        {
            "anonymous": false,
            "inputs": [
                {
                    "indexed": true,
                    "internalType": "address",
                    "name": "user",
                    "type": "address"
                },
                {
                    "indexed": false,
                    "internalType": "uint256",
                    "name": "tokenId",
                    "type": "uint256"
                },
                {
                    "indexed": false,
                    "internalType": "uint256",
                    "name": "liquidity",
                    "type": "uint256"
                }
            ],
            "name": "Staked",
            "type": "event"
        },
        {
            "anonymous": false,
            "inputs": [
                {
                    "indexed": false,
                    "internalType": "address",
                    "name": "account",
                    "type": "address"
                }
            ],
            "name": "Unpaused",
            "type": "event"
        },
        {
            "anonymous": false,
            "inputs": [
                {
                    "indexed": true,
                    "internalType": "address",
                    "name": "user",
                    "type": "address"
                },
                {
                    "indexed": false,
                    "internalType": "uint256",
                    "name": "tokenId",
                    "type": "uint256"
                }
            ],
            "name": "Unstaked",
            "type": "event"
        },
        {
            "inputs": [],
            "name": "CALCULATE_PRECISION",
            "outputs": [
                {
                    "internalType": "uint256",
                    "name": "",
                    "type": "uint256"
                }
            ],
            "stateMutability": "view",
            "type": "function"
        },
        {
            "inputs": [],
            "name": "admin",
            "outputs": [
                {
                    "internalType": "address",
                    "name": "",
                    "type": "address"
                }
            ],
            "stateMutability": "view",
            "type": "function"
        },
        {
            "inputs": [],
            "name": "claimReward",
            "outputs": [],
            "stateMutability": "nonpayable",
            "type": "function"
        },
        {
            "inputs": [],
            "name": "feePool",
            "outputs": [
                {
                    "internalType": "uint24",
                    "name": "",
                    "type": "uint24"
                }
            ],
            "stateMutability": "view",
            "type": "function"
        },
        {
            "inputs": [],
            "name": "globalIndex",
            "outputs": [
                {
                    "internalType": "uint256",
                    "name": "",
                    "type": "uint256"
                }
            ],
            "stateMutability": "view",
            "type": "function"
        },
        {
            "inputs": [],
            "name": "lastUpdated",
            "outputs": [
                {
                    "internalType": "uint256",
                    "name": "",
                    "type": "uint256"
                }
            ],
            "stateMutability": "view",
            "type": "function"
        },
        {
            "inputs": [
                {
                    "internalType": "address",
                    "name": "",
                    "type": "address"
                }
            ],
            "name": "newStakers",
            "outputs": [
                {
                    "internalType": "bool",
                    "name": "",
                    "type": "bool"
                }
            ],
            "stateMutability": "view",
            "type": "function"
        },
        {
            "inputs": [
                {
                    "internalType": "address",
                    "name": "",
                    "type": "address"
                },
                {
                    "internalType": "address",
                    "name": "_from",
                    "type": "address"
                },
                {
                    "internalType": "uint256",
                    "name": "_tokenId",
                    "type": "uint256"
                },
                {
                    "internalType": "bytes",
                    "name": "",
                    "type": "bytes"
                }
            ],
            "name": "onERC721Received",
            "outputs": [
                {
                    "internalType": "bytes4",
                    "name": "",
                    "type": "bytes4"
                }
            ],
            "stateMutability": "nonpayable",
            "type": "function"
        },
        {
            "inputs": [],
            "name": "owner",
            "outputs": [
                {
                    "internalType": "address",
                    "name": "",
                    "type": "address"
                }
            ],
            "stateMutability": "view",
            "type": "function"
        },
        {
            "inputs": [],
            "name": "pause",
            "outputs": [],
            "stateMutability": "nonpayable",
            "type": "function"
        },
        {
            "inputs": [],
            "name": "paused",
            "outputs": [
                {
                    "internalType": "bool",
                    "name": "",
                    "type": "bool"
                }
            ],
            "stateMutability": "view",
            "type": "function"
        },
        {
            "inputs": [],
            "name": "positionManager",
            "outputs": [
                {
                    "internalType": "contract INonfungiblePositionManager",
                    "name": "",
                    "type": "address"
                }
            ],
            "stateMutability": "view",
            "type": "function"
        },
        {
            "inputs": [],
            "name": "renounceOwnership",
            "outputs": [],
            "stateMutability": "nonpayable",
            "type": "function"
        },
        {
            "inputs": [],
            "name": "rps",
            "outputs": [
                {
                    "internalType": "uint256",
                    "name": "",
                    "type": "uint256"
                }
            ],
            "stateMutability": "view",
            "type": "function"
        },
        {
            "inputs": [
                {
                    "internalType": "uint256",
                    "name": "",
                    "type": "uint256"
                }
            ],
            "name": "stakedNFTs",
            "outputs": [
                {
                    "internalType": "address",
                    "name": "owner",
                    "type": "address"
                },
                {
                    "internalType": "uint256",
                    "name": "liquidity",
                    "type": "uint256"
                },
                {
                    "internalType": "enum UniswapV3LPStaking.statusNFT",
                    "name": "status",
                    "type": "uint8"
                }
            ],
            "stateMutability": "view",
            "type": "function"
        },
        {
            "inputs": [
                {
                    "internalType": "address",
                    "name": "",
                    "type": "address"
                },
                {
                    "internalType": "uint256",
                    "name": "",
                    "type": "uint256"
                }
            ],
            "name": "stakerToIndexToNFTID",
            "outputs": [
                {
                    "internalType": "uint256",
                    "name": "",
                    "type": "uint256"
                }
            ],
            "stateMutability": "view",
            "type": "function"
        },
        {
            "inputs": [
                {
                    "internalType": "address",
                    "name": "",
                    "type": "address"
                }
            ],
            "name": "stakerToNumberStakeNFT",
            "outputs": [
                {
                    "internalType": "uint256",
                    "name": "",
                    "type": "uint256"
                }
            ],
            "stateMutability": "view",
            "type": "function"
        },
        {
            "inputs": [
                {
                    "internalType": "address",
                    "name": "",
                    "type": "address"
                }
            ],
            "name": "stakers",
            "outputs": [
                {
                    "internalType": "uint256",
                    "name": "balance",
                    "type": "uint256"
                },
                {
                    "internalType": "uint256",
                    "name": "index",
                    "type": "uint256"
                },
                {
                    "internalType": "uint256",
                    "name": "pendingReward",
                    "type": "uint256"
                }
            ],
            "stateMutability": "view",
            "type": "function"
        },
        {
            "inputs": [],
            "name": "tickLower",
            "outputs": [
                {
                    "internalType": "int24",
                    "name": "",
                    "type": "int24"
                }
            ],
            "stateMutability": "view",
            "type": "function"
        },
        {
            "inputs": [],
            "name": "tickUpper",
            "outputs": [
                {
                    "internalType": "int24",
                    "name": "",
                    "type": "int24"
                }
            ],
            "stateMutability": "view",
            "type": "function"
        },
        {
            "inputs": [],
            "name": "timeUnlock",
            "outputs": [
                {
                    "internalType": "uint256",
                    "name": "",
                    "type": "uint256"
                }
            ],
            "stateMutability": "view",
            "type": "function"
        },
        {
            "inputs": [],
            "name": "token0",
            "outputs": [
                {
                    "internalType": "address",
                    "name": "",
                    "type": "address"
                }
            ],
            "stateMutability": "view",
            "type": "function"
        },
        {
            "inputs": [],
            "name": "token1",
            "outputs": [
                {
                    "internalType": "address",
                    "name": "",
                    "type": "address"
                }
            ],
            "stateMutability": "view",
            "type": "function"
        },
        {
            "inputs": [],
            "name": "tokenRewards",
            "outputs": [
                {
                    "internalType": "address",
                    "name": "",
                    "type": "address"
                }
            ],
            "stateMutability": "view",
            "type": "function"
        },
        {
            "inputs": [],
            "name": "totalStaked",
            "outputs": [
                {
                    "internalType": "uint256",
                    "name": "",
                    "type": "uint256"
                }
            ],
            "stateMutability": "view",
            "type": "function"
        },
        {
            "inputs": [],
            "name": "totalStaker",
            "outputs": [
                {
                    "internalType": "uint256",
                    "name": "",
                    "type": "uint256"
                }
            ],
            "stateMutability": "view",
            "type": "function"
        },
        {
            "inputs": [
                {
                    "internalType": "address",
                    "name": "newOwner",
                    "type": "address"
                }
            ],
            "name": "transferOwnership",
            "outputs": [],
            "stateMutability": "nonpayable",
            "type": "function"
        },
        {
            "inputs": [],
            "name": "unpause",
            "outputs": [],
            "stateMutability": "nonpayable",
            "type": "function"
        },
        {
            "inputs": [
                {
                    "internalType": "uint256",
                    "name": "tokenId",
                    "type": "uint256"
                }
            ],
            "name": "unstake",
            "outputs": [],
            "stateMutability": "nonpayable",
            "type": "function"
        },
        {
            "inputs": [
                {
                    "internalType": "address",
                    "name": "_admin",
                    "type": "address"
                }
            ],
            "name": "updateAdmin",
            "outputs": [],
            "stateMutability": "nonpayable",
            "type": "function"
        },
        {
            "inputs": [],
            "name": "updateGlobalIndex",
            "outputs": [],
            "stateMutability": "nonpayable",
            "type": "function"
        },
        {
            "inputs": [
                {
                    "internalType": "address",
                    "name": "account",
                    "type": "address"
                }
            ],
            "name": "updateReward",
            "outputs": [],
            "stateMutability": "nonpayable",
            "type": "function"
        },
        {
            "inputs": [
                {
                    "internalType": "uint256",
                    "name": "_rps",
                    "type": "uint256"
                }
            ],
            "name": "updateRps",
            "outputs": [],
            "stateMutability": "nonpayable",
            "type": "function"
        },
        {
            "inputs": [
                {
                    "internalType": "uint256",
                    "name": "_timeUnlock",
                    "type": "uint256"
                }
            ],
            "name": "updateTimeUnlock",
            "outputs": [],
            "stateMutability": "nonpayable",
            "type": "function"
        },
        {
            "inputs": [
                {
                    "internalType": "address",
                    "name": "account",
                    "type": "address"
                }
            ],
            "name": "viewReward",
            "outputs": [
                {
                    "internalType": "uint256",
                    "name": "",
                    "type": "uint256"
                }
            ],
            "stateMutability": "view",
            "type": "function"
        },
        {
            "inputs": [
                {
                    "internalType": "address",
                    "name": "token",
                    "type": "address"
                },
                {
                    "internalType": "uint256",
                    "name": "amount",
                    "type": "uint256"
                }
            ],
            "name": "withdraw",
            "outputs": [],
            "stateMutability": "nonpayable",
            "type": "function"
        }
    ],
    "transactionHash": "0x02720d2ba7ede9b760bc2623508ebbd0985c6b34d947e92f329c2086dcc87b09",
    "args": [
        "0x48d66a65693dB44d3ca05CBb54e0a806096e2eDA",
        "0x427bf5b37357632377ecbec9de3626c71a5396c1",
        "0x098edCf5dA9a4a5E7585EB855C43Cde835487342",
        "0xFD4bdaBA49D9FA683407d492A81aBb24C7cE0015",
        100,
        -887272,
        887271,
        "0xFD4bdaBA49D9FA683407d492A81aBb24C7cE0015",
        "1000000000000000000",
        1740114311
    ],
    "numDeployments": 1,
    "solcInputHash": "0eabc713e4685773e71a0ff2236b0139",
    "bytecode": "0x60c034620001ca57601f6200186038819003918201601f19168301916001600160401b03831184841017620001cf5780849261014094604052833981010312620001ca576200004e81620001e5565b6200005c60208301620001e5565b916200006b60408201620001e5565b916200007a60608301620001e5565b93608083015162ffffff81168103620001ca576200009b60a08501620001fa565b91620000aa60c08601620001fa565b92620000b960e08701620001e5565b92610120610100880151970151973315620001b1576000549960018060a01b039687916040519c338482167f8be0079c531659141344cd1fd0a4f28419497f9722a3daafe3b4186f6b6457e0600080a360ff60a01b1933169060018060a81b031916176000558260018060a01b03199a168a60015416176001556002549360805260a05260d01b62ffffff60d01b1694169062ffffff60e81b16179062ffffff60a01b9060a01b16179062ffffff60b81b9060b81b1617176002551690600454161760045560055560095561165690816200020a8239608051818181610d6101526112f4015260a05181818161030d01526110c80152f35b604051631e4fbdf760e01b815260006004820152602490fd5b600080fd5b634e487b7160e01b600052604160045260246000fd5b51906001600160a01b0382168203620001ca57565b51908160020b8203620001ca5756fe608080604052600436101561001357600080fd5b600090813560e01c90816303f35bce1461133f57508063091c76f5146113185780630dfe1681146112d4578063150b7a0214610ba25780631e81399314610b6a5780632e17de781461096657806333aae5c81461092457806333e81b601461090b5780633f4ba83a1461089c5780634cc9fc1d1461082257806355b812a8146107fe578063574f704b146107db57806359c4f905146107b75780635c975abb14610792578063632447c914610770578063715018a614610716578063791b98bc146106ef578063817b1cd2146106d15780638456cb59146106615780638da5cb5b1461063b5780638eb599a41461061d5780639168ae72146105cd57806392b4bb50146105af5780639b3f691b1461058c578063a5879de31461056e578063ae2e933b14610548578063b865749d146104db578063b88a802f14610453578063d0b06f5d14610435578063d0eede6714610331578063d21220a7146102ed578063d890a870146102cf578063e2f273bd14610290578063f2fde38b14610207578063f3fef3a3146101d65763f851a440146101ad57600080fd5b346101d357806003193601126101d35760206001600160a01b0360015416604051908152f35b80fd5b50346101d35760403660031901126101d3576102046101f3611379565b6101fb61156e565b6024359061159a565b80f35b50346101d35760203660031901126101d357610221611379565b61022961156e565b6001600160a01b0380911690811561027757600054826001600160a01b0319821617600055167f8be0079c531659141344cd1fd0a4f28419497f9722a3daafe3b4186f6b6457e0600080a380f35b604051631e4fbdf760e01b815260048101849052602490fd5b50346101d35760203660031901126101d3576001600160a01b036102b2611379565b6102ba61156e565b166001600160a01b0319600154161760015580f35b50346101d357806003193601126101d3576020600654604051908152f35b50346101d357806003193601126101d35760206040516001600160a01b037f0000000000000000000000000000000000000000000000000000000000000000168152f35b50346101d35760203660031901126101d3576001600160a01b03610353611379565b168152600a602052604081209061036c60075442611439565b60065491600354918215158061042c575b6103c0575b60206103b885670de0b6b3a76400006103b1896103a9600282015494600183015490611439565b905490611446565b04906113ca565b604051908152f35b6103cc90600554611446565b90670de0b6b3a76400009182810292818404149015171561041857506103b161040e6103b89461040860209795670de0b6b3a764000095611459565b906113ca565b9350829450610382565b634e487b7160e01b81526011600452602490fd5b5080151561037d565b50346101d357806003193601126101d3576020600754604051908152f35b50346101d357806003193601126101d3576104726009544210156113ed565b61047a611479565b610483336114ed565b338152600a6020526002604082200181815491556104ac816001600160a01b036004541661159a565b6040519081527fd8138f8a3f377c5259ca548e70e4c2de94f129f5a11036a15b69513cba2b426a60203392a280f35b50346101d35760203660031901126101d3576004358152600b602052604081206001600160a01b038154169060ff6002600183015492015416906040519283526020830152600281101561053457606092506040820152f35b634e487b7160e01b83526021600452602483fd5b50346101d357806003193601126101d357602062ffffff60025460a01c16604051908152f35b50346101d357806003193601126101d3576020600854604051908152f35b50346101d35760203660031901126101d3576105a661156e565b60043560095580f35b50346101d357806003193601126101d3576020600554604051908152f35b50346101d35760203660031901126101d35760406060916001600160a01b036105f4611379565b168152600a60205220805490600260018201549101549060405192835260208301526040820152f35b50346101d357806003193601126101d3576020600954604051908152f35b50346101d357806003193601126101d3576001600160a01b036020915416604051908152f35b50346101d357806003193601126101d35761067a61156e565b61068261154d565b7401000000000000000000000000000000000000000060ff60a01b198254161781557f62e78cea01bee320cd4e420270b5ea74000d11b0c9f74754ebdbfc544b05a2586020604051338152a180f35b50346101d357806003193601126101d3576020600354604051908152f35b50346101d357806003193601126101d35760206001600160a01b0360025416604051908152f35b50346101d357806003193601126101d35761072f61156e565b60006001600160a01b0381546001600160a01b031981168355167f8be0079c531659141344cd1fd0a4f28419497f9722a3daafe3b4186f6b6457e08280a380f35b50346101d35760203660031901126101d35761020461078d611379565b6114ed565b50346101d357806003193601126101d35760ff6020915460a01c166040519015158152f35b50346101d357806003193601126101d357602060025460b81c60020b604051908152f35b50346101d357806003193601126101d3576020604051670de0b6b3a76400008152f35b50346101d357806003193601126101d357602060025460d01c60020b604051908152f35b50346101d35760203660031901126101d3576001600160a01b036001541633036108575761084e611479565b60043560055580f35b60405162461bcd60e51b815260206004820152600a60248201527f6f6e6c792061646d696e000000000000000000000000000000000000000000006044820152606490fd5b50346101d357806003193601126101d3576108b561156e565b805460ff8160a01c16156108f95760ff60a01b191681557f5db9ee0a495bf2e6ff9c91a7834c1ba4fdd244a5e8aa4e537bd38aeae4b073aa6020604051338152a180f35b604051638dfc202b60e01b8152600490fd5b50346101d357806003193601126101d357610204611479565b50346101d35760403660031901126101d35760406020916001600160a01b0361094b611379565b168152600e8352818120602435825283522054604051908152f35b50346101d357602080600319360112610ac8576004359061098b6009544210156113ed565b818352600b815260408320338452600a8252604084209060ff6002820154166002811015610b5657610b11576001600160a01b03338183541603610acc5785906109d3611479565b6109dc336114ed565b60025416803b15610ac8578190606460405180948193632142170760e11b83523060048401523360248401528a60448401525af18015610abd57610a6d575b507f0f5bb82176feb1b5e747e28471aa92156a04d9f3ab9f45f28e2d704232b93f7592916001610a5e920190610a5382548254611439565b905554600354611439565b6003556040519283523392a280f35b67ffffffffffffffff8196929611610aa957604052937f0f5bb82176feb1b5e747e28471aa92156a04d9f3ab9f45f28e2d704232b93f75610a1b565b634e487b7160e01b82526041600452602482fd5b6040513d88823e3d90fd5b5080fd5b60405162461bcd60e51b815260048101859052600d60248201527f4e6f74204e4654206f776e6572000000000000000000000000000000000000006044820152606490fd5b60405162461bcd60e51b815260048101849052600f60248201527f4e4654206e6f74207374616b696e6700000000000000000000000000000000006044820152606490fd5b634e487b7160e01b86526021600452602486fd5b50346101d35760203660031901126101d35760406020916001600160a01b03610b91611379565b168152600d83522054604051908152f35b50346101d35760803660031901126101d357610bbc611379565b506024356001600160a01b0381168103610ac85760643567ffffffffffffffff81116112d057366023820112156112d057806004013567ffffffffffffffff81116112cc5736910160240111610ac85760027f9b779b17422d0df92223018b32b4d1fa46e071723d6817e2486d003becc55f0054146112ba5760027f9b779b17422d0df92223018b32b4d1fa46e071723d6817e2486d003becc55f0055610c6161154d565b610c69611479565b610c72816114ed565b306001600160a01b03821614611275576002546001600160a01b0381163303611230576040519060c0820182811067ffffffffffffffff82111761121c576040528382528360208301528360408301528360608301528360808301528360a083015260405163133f757160e31b81526044356004820152610180816024816001600160a01b0386165afa801561121157859086908793889189918a916110ef575b50916001600160a01b0393916001600160801b0385941660a08a015260020b608089015260020b606088015262ffffff80951660408801521691826020870152168085526001600160a01b037f0000000000000000000000000000000000000000000000000000000000000000161490816110bc575b50156110775780604084015116908260a01c1603611032576001600160801b0360a08301511615610fed57606082015160020b8160b81c60020b149081610fd5575b5015610f90576044358352600b60205260408320926001600160a01b0383166001600160a01b031985541617845560026001600160801b0360a08401511694600195868201550160ff19908181541690556001600160a01b0384168252600a6020528460408320610e4a6001600160801b0360a08701511682546113ca565b8155610e656001600160801b0360a0870151166003546113ca565b6003550154906001600160a01b0385168352600c602052856040842091825460ff811615610f5f575b505050506001600160a01b0384168252600e60205260408220600d6020526040832054835260205260408220556001600160a01b0383168152600d6020526040812080549185830180931161041857506001600160801b0360a07f1449c6dd7851abc30abf37f57715f492010519147cc2652fbc38202c18a6ee90946040946001600160a01b03945501511693825194604435865260208601521692a27f9b779b17422d0df92223018b32b4d1fa46e071723d6817e2486d003becc55f0055604051630a85bd0160e11b8152602090f35b16179055600854858101809111610f7c5760085538858180610e8e565b634e487b7160e01b83526011600452602483fd5b60405162461bcd60e51b815260206004820152600c60248201527f496e76616c6964207469636b00000000000000000000000000000000000000006044820152606490fd5b9050608082015160020b9060d01c60020b1438610dcb565b60405162461bcd60e51b815260206004820152601160248201527f496e76616c6964206c69717569646974790000000000000000000000000000006044820152606490fd5b60405162461bcd60e51b815260206004820152600b60248201527f496e76616c6964206665650000000000000000000000000000000000000000006044820152606490fd5b60405162461bcd60e51b815260206004820152600d60248201527f496e76616c696420746f6b656e000000000000000000000000000000000000006044820152606490fd5b90506001600160a01b037f0000000000000000000000000000000000000000000000000000000000000000161438610d89565b955050505050506101803d6101801161120a575b67ffffffffffffffff601f8201601f19168301908111908311176111f6578161018091601f19601f8201168201604052810103126111f25780516bffffffffffffffffffffffff8116036111f25761115d60208201611394565b5061116a60408201611394565b61117660608301611394565b9060808301519062ffffff821682036111ee576001600160a01b039182916111a060a087016113a8565b956001600160801b036111b560c083016113a8565b926111dd6101606111c860e086016113b6565b946111d661014082016113b6565b50016113b6565b509693979291929450509193610d13565b8780fd5b8480fd5b634e487b7160e01b86526041600452602486fd5b503d611103565b6040513d87823e3d90fd5b634e487b7160e01b85526041600452602485fd5b60405162461bcd60e51b815260206004820152601860248201527f496e76616c696420506f736974696f6e204d616e6167657200000000000000006044820152606490fd5b60405162461bcd60e51b815260206004820152600e60248201527f496e76616c69642073656e6465720000000000000000000000000000000000006044820152606490fd5b604051633ee5aeb560e01b8152600490fd5b8380fd5b8280fd5b50346101d357806003193601126101d35760206040516001600160a01b037f0000000000000000000000000000000000000000000000000000000000000000168152f35b50346101d357806003193601126101d35760206001600160a01b0360045416604051908152f35b905034610ac8576020366003190112610ac85760ff60406020936001600160a01b03611369611379565b168152600c855220541615158152f35b600435906001600160a01b038216820361138f57565b600080fd5b51906001600160a01b038216820361138f57565b51908160020b820361138f57565b51906001600160801b038216820361138f57565b919082018092116113d757565b634e487b7160e01b600052601160045260246000fd5b156113f457565b60405162461bcd60e51b815260206004820152600d60248201527f7374696c6c206c6f636b696e67000000000000000000000000000000000000006044820152606490fd5b919082039182116113d757565b818102929181159184041417156113d757565b8115611463570490565b634e487b7160e01b600052601260045260246000fd5b61148560075442611439565b60035490811515806114e4575b61149f575b505042600755565b6114ab90600554611446565b670de0b6b3a7640000908181029181830414901517156113d7576114da916114d291611459565b6006546113ca565b6006553880611497565b50801515611492565b6001600160a01b03906114fe611479565b16600052600a6020526040600020600654906115446002670de0b6b3a76400006115396115316001860196875490611439565b855490611446565b0492019182546113ca565b90556006549055565b60ff60005460a01c1661155c57565b60405163d93c066560e01b8152600490fd5b6001600160a01b0360005416330361158257565b60405163118cdaa760e01b8152336004820152602490fd5b6001600160a01b03169060405190602082019063a9059cbb60e01b8252336024840152604483015260448252608082019082821067ffffffffffffffff83111761163357602092600092604052519082855af115611627576000513d61161e5750803b155b6116065750565b60249060405190635274afe760e01b82526004820152fd5b600114156115ff565b6040513d6000823e3d90fd5b634e487b7160e01b600052604160045260246000fdfea164736f6c6343000818000a",
    "devdoc": {
        "errors": {
            "EnforcedPause()": [
                {
                    "details": "The operation failed because the contract is paused."
                }
            ],
            "ExpectedPause()": [
                {
                    "details": "The operation failed because the contract is not paused."
                }
            ],
            "InvalidInitialization()": [
                {
                    "details": "The contract is already initialized."
                }
            ],
            "NotInitializing()": [
                {
                    "details": "The contract is not initializing."
                }
            ],
            "OwnableInvalidOwner(address)": [
                {
                    "details": "The owner is not a valid owner account. (eg. `address(0)`)"
                }
            ],
            "OwnableUnauthorizedAccount(address)": [
                {
                    "details": "The caller account is not authorized to perform an operation."
                }
            ],
            "ReentrancyGuardReentrantCall()": [
                {
                    "details": "Unauthorized reentrant call."
                }
            ],
            "SafeERC20FailedOperation(address)": [
                {
                    "details": "An operation with an ERC-20 token failed."
                }
            ]
        },
        "events": {
            "Initialized(uint64)": {
                "details": "Triggered when the contract has been initialized or reinitialized."
            },
            "Paused(address)": {
                "details": "Emitted when the pause is triggered by `account`."
            },
            "Unpaused(address)": {
                "details": "Emitted when the pause is lifted by `account`."
            }
        },
        "kind": "dev",
        "methods": {
            "owner()": {
                "details": "Returns the address of the current owner."
            },
            "paused()": {
                "details": "Returns true if the contract is paused, and false otherwise."
            },
            "renounceOwnership()": {
                "details": "Leaves the contract without owner. It will not be possible to call `onlyOwner` functions. Can only be called by the current owner. NOTE: Renouncing ownership will leave the contract without an owner, thereby disabling any functionality that is only available to the owner."
            },
            "transferOwnership(address)": {
                "details": "Transfers ownership of the contract to a new account (`newOwner`). Can only be called by the current owner."
            }
        },
        "version": 1
    },
    "userdoc": {
        "kind": "user",
        "methods": {},
        "version": 1
    },
    "storageLayout": {
        "storage": [
            {
                "astId": 391,
                "contract": "contracts/UniswapV3LPStaking.sol:UniswapV3LPStaking",
                "label": "_owner",
                "offset": 0,
                "slot": "0",
                "type": "t_address"
            },
            {
                "astId": 1263,
                "contract": "contracts/UniswapV3LPStaking.sol:UniswapV3LPStaking",
                "label": "_paused",
                "offset": 20,
                "slot": "0",
                "type": "t_bool"
            },
            {
                "astId": 1435,
                "contract": "contracts/UniswapV3LPStaking.sol:UniswapV3LPStaking",
                "label": "admin",
                "offset": 0,
                "slot": "1",
                "type": "t_address"
            },
            {
                "astId": 1438,
                "contract": "contracts/UniswapV3LPStaking.sol:UniswapV3LPStaking",
                "label": "positionManager",
                "offset": 0,
                "slot": "2",
                "type": "t_contract(INonfungiblePositionManager)2223"
            },
            {
                "astId": 1444,
                "contract": "contracts/UniswapV3LPStaking.sol:UniswapV3LPStaking",
                "label": "feePool",
                "offset": 20,
                "slot": "2",
                "type": "t_uint24"
            },
            {
                "astId": 1446,
                "contract": "contracts/UniswapV3LPStaking.sol:UniswapV3LPStaking",
                "label": "tickLower",
                "offset": 23,
                "slot": "2",
                "type": "t_int24"
            },
            {
                "astId": 1448,
                "contract": "contracts/UniswapV3LPStaking.sol:UniswapV3LPStaking",
                "label": "tickUpper",
                "offset": 26,
                "slot": "2",
                "type": "t_int24"
            },
            {
                "astId": 1450,
                "contract": "contracts/UniswapV3LPStaking.sol:UniswapV3LPStaking",
                "label": "totalStaked",
                "offset": 0,
                "slot": "3",
                "type": "t_uint256"
            },
            {
                "astId": 1452,
                "contract": "contracts/UniswapV3LPStaking.sol:UniswapV3LPStaking",
                "label": "tokenRewards",
                "offset": 0,
                "slot": "4",
                "type": "t_address"
            },
            {
                "astId": 1454,
                "contract": "contracts/UniswapV3LPStaking.sol:UniswapV3LPStaking",
                "label": "rps",
                "offset": 0,
                "slot": "5",
                "type": "t_uint256"
            },
            {
                "astId": 1456,
                "contract": "contracts/UniswapV3LPStaking.sol:UniswapV3LPStaking",
                "label": "globalIndex",
                "offset": 0,
                "slot": "6",
                "type": "t_uint256"
            },
            {
                "astId": 1458,
                "contract": "contracts/UniswapV3LPStaking.sol:UniswapV3LPStaking",
                "label": "lastUpdated",
                "offset": 0,
                "slot": "7",
                "type": "t_uint256"
            },
            {
                "astId": 1460,
                "contract": "contracts/UniswapV3LPStaking.sol:UniswapV3LPStaking",
                "label": "totalStaker",
                "offset": 0,
                "slot": "8",
                "type": "t_uint256"
            },
            {
                "astId": 1462,
                "contract": "contracts/UniswapV3LPStaking.sol:UniswapV3LPStaking",
                "label": "timeUnlock",
                "offset": 0,
                "slot": "9",
                "type": "t_uint256"
            },
            {
                "astId": 1470,
                "contract": "contracts/UniswapV3LPStaking.sol:UniswapV3LPStaking",
                "label": "stakers",
                "offset": 0,
                "slot": "10",
                "type": "t_mapping(t_address,t_struct(StakerInfo)1420_storage)"
            },
            {
                "astId": 1475,
                "contract": "contracts/UniswapV3LPStaking.sol:UniswapV3LPStaking",
                "label": "stakedNFTs",
                "offset": 0,
                "slot": "11",
                "type": "t_mapping(t_uint256,t_struct(StakedNFT)1413_storage)"
            },
            {
                "astId": 1479,
                "contract": "contracts/UniswapV3LPStaking.sol:UniswapV3LPStaking",
                "label": "newStakers",
                "offset": 0,
                "slot": "12",
                "type": "t_mapping(t_address,t_bool)"
            },
            {
                "astId": 1483,
                "contract": "contracts/UniswapV3LPStaking.sol:UniswapV3LPStaking",
                "label": "stakerToNumberStakeNFT",
                "offset": 0,
                "slot": "13",
                "type": "t_mapping(t_address,t_uint256)"
            },
            {
                "astId": 1489,
                "contract": "contracts/UniswapV3LPStaking.sol:UniswapV3LPStaking",
                "label": "stakerToIndexToNFTID",
                "offset": 0,
                "slot": "14",
                "type": "t_mapping(t_address,t_mapping(t_uint256,t_uint256))"
            }
        ],
        "types": {
            "t_address": {
                "encoding": "inplace",
                "label": "address",
                "numberOfBytes": "20"
            },
            "t_bool": {
                "encoding": "inplace",
                "label": "bool",
                "numberOfBytes": "1"
            },
            "t_contract(INonfungiblePositionManager)2223": {
                "encoding": "inplace",
                "label": "contract INonfungiblePositionManager",
                "numberOfBytes": "20"
            },
            "t_enum(statusNFT)1405": {
                "encoding": "inplace",
                "label": "enum UniswapV3LPStaking.statusNFT",
                "numberOfBytes": "1"
            },
            "t_int24": {
                "encoding": "inplace",
                "label": "int24",
                "numberOfBytes": "3"
            },
            "t_mapping(t_address,t_bool)": {
                "encoding": "mapping",
                "key": "t_address",
                "label": "mapping(address => bool)",
                "numberOfBytes": "32",
                "value": "t_bool"
            },
            "t_mapping(t_address,t_mapping(t_uint256,t_uint256))": {
                "encoding": "mapping",
                "key": "t_address",
                "label": "mapping(address => mapping(uint256 => uint256))",
                "numberOfBytes": "32",
                "value": "t_mapping(t_uint256,t_uint256)"
            },
            "t_mapping(t_address,t_struct(StakerInfo)1420_storage)": {
                "encoding": "mapping",
                "key": "t_address",
                "label": "mapping(address => struct UniswapV3LPStaking.StakerInfo)",
                "numberOfBytes": "32",
                "value": "t_struct(StakerInfo)1420_storage"
            },
            "t_mapping(t_address,t_uint256)": {
                "encoding": "mapping",
                "key": "t_address",
                "label": "mapping(address => uint256)",
                "numberOfBytes": "32",
                "value": "t_uint256"
            },
            "t_mapping(t_uint256,t_struct(StakedNFT)1413_storage)": {
                "encoding": "mapping",
                "key": "t_uint256",
                "label": "mapping(uint256 => struct UniswapV3LPStaking.StakedNFT)",
                "numberOfBytes": "32",
                "value": "t_struct(StakedNFT)1413_storage"
            },
            "t_mapping(t_uint256,t_uint256)": {
                "encoding": "mapping",
                "key": "t_uint256",
                "label": "mapping(uint256 => uint256)",
                "numberOfBytes": "32",
                "value": "t_uint256"
            },
            "t_struct(StakedNFT)1413_storage": {
                "encoding": "inplace",
                "label": "struct UniswapV3LPStaking.StakedNFT",
                "members": [
                    {
                        "astId": 1407,
                        "contract": "contracts/UniswapV3LPStaking.sol:UniswapV3LPStaking",
                        "label": "owner",
                        "offset": 0,
                        "slot": "0",
                        "type": "t_address"
                    },
                    {
                        "astId": 1409,
                        "contract": "contracts/UniswapV3LPStaking.sol:UniswapV3LPStaking",
                        "label": "liquidity",
                        "offset": 0,
                        "slot": "1",
                        "type": "t_uint256"
                    },
                    {
                        "astId": 1412,
                        "contract": "contracts/UniswapV3LPStaking.sol:UniswapV3LPStaking",
                        "label": "status",
                        "offset": 0,
                        "slot": "2",
                        "type": "t_enum(statusNFT)1405"
                    }
                ],
                "numberOfBytes": "96"
            },
            "t_struct(StakerInfo)1420_storage": {
                "encoding": "inplace",
                "label": "struct UniswapV3LPStaking.StakerInfo",
                "members": [
                    {
                        "astId": 1415,
                        "contract": "contracts/UniswapV3LPStaking.sol:UniswapV3LPStaking",
                        "label": "balance",
                        "offset": 0,
                        "slot": "0",
                        "type": "t_uint256"
                    },
                    {
                        "astId": 1417,
                        "contract": "contracts/UniswapV3LPStaking.sol:UniswapV3LPStaking",
                        "label": "index",
                        "offset": 0,
                        "slot": "1",
                        "type": "t_uint256"
                    },
                    {
                        "astId": 1419,
                        "contract": "contracts/UniswapV3LPStaking.sol:UniswapV3LPStaking",
                        "label": "pendingReward",
                        "offset": 0,
                        "slot": "2",
                        "type": "t_uint256"
                    }
                ],
                "numberOfBytes": "96"
            },
            "t_uint24": {
                "encoding": "inplace",
                "label": "uint24",
                "numberOfBytes": "3"
            },
            "t_uint256": {
                "encoding": "inplace",
                "label": "uint256",
                "numberOfBytes": "32"
            }
        }
    }
}