{
  "address": "0x372774f456C46D11fA3b8c29a5C77a113B46a69F",
  "abi": [
    {
      "inputs": [],
      "name": "EnforcedPause",
      "type": "error"
    },
    {
      "inputs": [],
      "name": "ExpectedPause",
      "type": "error"
    },
    {
      "inputs": [],
      "name": "InvalidInitialization",
      "type": "error"
    },
    {
      "inputs": [],
      "name": "NotInitializing",
      "type": "error"
    },
    {
      "inputs": [
        {
          "internalType": "address",
          "name": "token",
          "type": "address"
        }
      ],
      "name": "SafeERC20FailedOperation",
      "type": "error"
    },
    {
      "anonymous": false,
      "inputs": [
        {
          "indexed": true,
          "internalType": "address",
          "name": "user",
          "type": "address"
        },
        {
          "indexed": false,
          "internalType": "uint256",
          "name": "amount",
          "type": "uint256"
        }
      ],
      "name": "Claimed",
      "type": "event"
    },
    {
      "anonymous": false,
      "inputs": [
        {
          "indexed": false,
          "internalType": "uint64",
          "name": "version",
          "type": "uint64"
        }
      ],
      "name": "Initialized",
      "type": "event"
    },
    {
      "anonymous": false,
      "inputs": [
        {
          "indexed": false,
          "internalType": "address",
          "name": "account",
          "type": "address"
        }
      ],
      "name": "Paused",
      "type": "event"
    },
    {
      "anonymous": false,
      "inputs": [
        {
          "indexed": true,
          "internalType": "address",
          "name": "user",
          "type": "address"
        },
        {
          "indexed": false,
          "internalType": "uint256",
          "name": "amount",
          "type": "uint256"
        }
      ],
      "name": "Staked",
      "type": "event"
    },
    {
      "anonymous": false,
      "inputs": [
        {
          "indexed": false,
          "internalType": "address",
          "name": "account",
          "type": "address"
        }
      ],
      "name": "Unpaused",
      "type": "event"
    },
    {
      "anonymous": false,
      "inputs": [
        {
          "indexed": true,
          "internalType": "address",
          "name": "user",
          "type": "address"
        },
        {
          "indexed": false,
          "internalType": "uint256",
          "name": "amount",
          "type": "uint256"
        }
      ],
      "name": "Unstaked",
      "type": "event"
    },
    {
      "inputs": [],
      "name": "CALCULATE_PRECISION",
      "outputs": [
        {
          "internalType": "uint256",
          "name": "",
          "type": "uint256"
        }
      ],
      "stateMutability": "view",
      "type": "function"
    },
    {
      "inputs": [],
      "name": "admin",
      "outputs": [
        {
          "internalType": "address",
          "name": "",
          "type": "address"
        }
      ],
      "stateMutability": "view",
      "type": "function"
    },
    {
      "inputs": [
        {
          "internalType": "address",
          "name": "_admin",
          "type": "address"
        }
      ],
      "name": "changeAdmin",
      "outputs": [],
      "stateMutability": "nonpayable",
      "type": "function"
    },
    {
      "inputs": [
        {
          "internalType": "address",
          "name": "_updater",
          "type": "address"
        }
      ],
      "name": "changeUpdater",
      "outputs": [],
      "stateMutability": "nonpayable",
      "type": "function"
    },
    {
      "inputs": [],
      "name": "claimReward",
      "outputs": [],
      "stateMutability": "nonpayable",
      "type": "function"
    },
    {
      "inputs": [],
      "name": "globalIndex",
      "outputs": [
        {
          "internalType": "uint256",
          "name": "",
          "type": "uint256"
        }
      ],
      "stateMutability": "view",
      "type": "function"
    },
    {
      "inputs": [
        {
          "internalType": "address",
          "name": "_tokenRewards",
          "type": "address"
        },
        {
          "internalType": "address",
          "name": "_tokenStaked",
          "type": "address"
        },
        {
          "internalType": "uint256",
          "name": "_rps",
          "type": "uint256"
        },
        {
          "internalType": "address",
          "name": "_updater",
          "type": "address"
        },
        {
          "internalType": "uint256",
          "name": "_timeUnlock",
          "type": "uint256"
        }
      ],
      "name": "initialize",
      "outputs": [],
      "stateMutability": "nonpayable",
      "type": "function"
    },
    {
      "inputs": [],
      "name": "lastUpdated",
      "outputs": [
        {
          "internalType": "uint256",
          "name": "",
          "type": "uint256"
        }
      ],
      "stateMutability": "view",
      "type": "function"
    },
    {
      "inputs": [
        {
          "internalType": "address",
          "name": "",
          "type": "address"
        }
      ],
      "name": "newStakers",
      "outputs": [
        {
          "internalType": "bool",
          "name": "",
          "type": "bool"
        }
      ],
      "stateMutability": "view",
      "type": "function"
    },
    {
      "inputs": [],
      "name": "pause",
      "outputs": [],
      "stateMutability": "nonpayable",
      "type": "function"
    },
    {
      "inputs": [],
      "name": "paused",
      "outputs": [
        {
          "internalType": "bool",
          "name": "",
          "type": "bool"
        }
      ],
      "stateMutability": "view",
      "type": "function"
    },
    {
      "inputs": [],
      "name": "rps",
      "outputs": [
        {
          "internalType": "uint256",
          "name": "",
          "type": "uint256"
        }
      ],
      "stateMutability": "view",
      "type": "function"
    },
    {
      "inputs": [
        {
          "internalType": "uint256",
          "name": "amount",
          "type": "uint256"
        }
      ],
      "name": "stake",
      "outputs": [],
      "stateMutability": "nonpayable",
      "type": "function"
    },
    {
      "inputs": [
        {
          "internalType": "address",
          "name": "",
          "type": "address"
        }
      ],
      "name": "stakers",
      "outputs": [
        {
          "internalType": "uint256",
          "name": "balance",
          "type": "uint256"
        },
        {
          "internalType": "uint256",
          "name": "index",
          "type": "uint256"
        },
        {
          "internalType": "uint256",
          "name": "pendingReward",
          "type": "uint256"
        }
      ],
      "stateMutability": "view",
      "type": "function"
    },
    {
      "inputs": [],
      "name": "timeUnlock",
      "outputs": [
        {
          "internalType": "uint256",
          "name": "",
          "type": "uint256"
        }
      ],
      "stateMutability": "view",
      "type": "function"
    },
    {
      "inputs": [],
      "name": "tokenRewards",
      "outputs": [
        {
          "internalType": "address",
          "name": "",
          "type": "address"
        }
      ],
      "stateMutability": "view",
      "type": "function"
    },
    {
      "inputs": [],
      "name": "tokenStaked",
      "outputs": [
        {
          "internalType": "address",
          "name": "",
          "type": "address"
        }
      ],
      "stateMutability": "view",
      "type": "function"
    },
    {
      "inputs": [],
      "name": "totalStaked",
      "outputs": [
        {
          "internalType": "uint256",
          "name": "",
          "type": "uint256"
        }
      ],
      "stateMutability": "view",
      "type": "function"
    },
    {
      "inputs": [],
      "name": "totalStaker",
      "outputs": [
        {
          "internalType": "uint256",
          "name": "",
          "type": "uint256"
        }
      ],
      "stateMutability": "view",
      "type": "function"
    },
    {
      "inputs": [],
      "name": "unpause",
      "outputs": [],
      "stateMutability": "nonpayable",
      "type": "function"
    },
    {
      "inputs": [
        {
          "internalType": "uint256",
          "name": "amount",
          "type": "uint256"
        }
      ],
      "name": "unstake",
      "outputs": [],
      "stateMutability": "nonpayable",
      "type": "function"
    },
    {
      "inputs": [
        {
          "internalType": "uint256",
          "name": "amount",
          "type": "uint256"
        }
      ],
      "name": "unstakeWithoutClaimReward",
      "outputs": [],
      "stateMutability": "nonpayable",
      "type": "function"
    },
    {
      "inputs": [],
      "name": "updateGlobalIndex",
      "outputs": [],
      "stateMutability": "nonpayable",
      "type": "function"
    },
    {
      "inputs": [
        {
          "internalType": "address",
          "name": "account",
          "type": "address"
        }
      ],
      "name": "updateReward",
      "outputs": [],
      "stateMutability": "nonpayable",
      "type": "function"
    },
    {
      "inputs": [
        {
          "internalType": "uint256",
          "name": "_rps",
          "type": "uint256"
        }
      ],
      "name": "updateRps",
      "outputs": [],
      "stateMutability": "nonpayable",
      "type": "function"
    },
    {
      "inputs": [
        {
          "internalType": "uint256",
          "name": "_timeUnlock",
          "type": "uint256"
        }
      ],
      "name": "updateTimeUnlock",
      "outputs": [],
      "stateMutability": "nonpayable",
      "type": "function"
    },
    {
      "inputs": [],
      "name": "updater",
      "outputs": [
        {
          "internalType": "address",
          "name": "",
          "type": "address"
        }
      ],
      "stateMutability": "view",
      "type": "function"
    },
    {
      "inputs": [
        {
          "internalType": "address",
          "name": "account",
          "type": "address"
        }
      ],
      "name": "viewReward",
      "outputs": [
        {
          "internalType": "uint256",
          "name": "",
          "type": "uint256"
        }
      ],
      "stateMutability": "view",
      "type": "function"
    },
    {
      "inputs": [
        {
          "internalType": "address",
          "name": "token",
          "type": "address"
        },
        {
          "internalType": "uint256",
          "name": "amount",
          "type": "uint256"
        }
      ],
      "name": "withdraw",
      "outputs": [],
      "stateMutability": "nonpayable",
      "type": "function"
    }
  ],
  "transactionHash": "0x3e76145c08d12b356701c403af51404b58ecbaca80dcecc97cff045fc96fd7b6",
  "args": [],
  "numDeployments": 2,
  "solcInputHash": "dd12d5c679d8034ba874bad2cfe941fd",
  "bytecode": "0x6080806040523461001657611176908161001c8239f35b600080fdfe608060408181526004918236101561001657600080fd5b600092833560e01c91826303f35bce14610d8557508163091c76f514610d5d5781632e17de7814610c5b578163326220bf14610c0957816333e81b6014610bf05781633f4ba83a14610b585781634cc9fc1d14610ae05781634e20f69214610a37578163518f49d814610a0f578163574f704b146109ec5781635c975abb146109a9578163632447c914610984578163817b1cd2146109665781638456cb59146108de5781638eb599a4146108bf5781638f283970146108685781639168ae721461081b57816392b4bb50146107fc5781639b3f691b146107cc578163a5879de3146107ad578163a694fc3a1461066d578163b88a802f146105e6578163d0b06f5d146105c7578163d0eede67146104c1578163d890a870146104a2578163df034cd01461047c578163f3fef3a31461035a578163f7c00e631461018e575063f851a4401461016457600080fd5b3461018a578160031936011261018a576020906001600160a01b03600154169051908152f35b5080fd5b9050346103565760a0366003190112610356576101a9610dbf565b906024356001600160a01b0392838216809203610352576064359184831680930361034e577ff0c57e16840df040f15088dc2f81fe391c3923bec73e23a9662efc9c229c6a0094855460ff81891c16159567ffffffffffffffff821680159081610346575b600114908161033c575b159081610333575b50610325575067ffffffffffffffff198116600117875585610306575b506102466110c0565b61024e6110c0565b7fcd5ed15c6e187e77e9aee88184c21f4f2182ab5827cb3b7e07fbedcd63f0330060ff19815416905573ffffffffffffffffffffffffffffffffffffffff199233846001541617600155168260035416176003558160025416176002556044356007558554161784556084356009556102c5578280f35b805468ff00000000000000001916905551600181527fc7f505b2f371ae2175ee4913f4499e1f2633a7b5936321eed1cdaeb6115181d290602090a138808280f35b68ffffffffffffffffff1916680100000000000000011786553861023d565b885163f92ee8a960e01b8152fd5b90501538610220565b303b159150610218565b88915061020e565b8680fd5b8580fd5b8280fd5b9190503461035657806003193601126103565760246020610379610dbf565b61039c6001600160a01b039161039483600154163314610e95565b843590610ff5565b600254168351928380926370a0823160e01b825230888301525afa908115610472578491610414575b508254116103d1578280f35b906020606492519162461bcd60e51b8352820152601960248201527f6e6f7420656e6f7567682062616c616e6365207374616b6564000000000000006044820152fd5b905060203d60201161046b575b601f8101601f1916820167ffffffffffffffff8111838210176104585760209183918552810103126104545751386103c5565b8380fd5b634e487b7160e01b865260418552602486fd5b503d610421565b82513d86823e3d90fd5b50503461018a578160031936011261018a576001600160a01b0360209254169051908152f35b50503461018a578160031936011261018a576020906005549051908152f35b905034610356576020366003190112610356576001600160a01b036104e4610dbf565b168352600a602052818320906104fc60065442610e72565b60055494825491821515806105be575b61054f575b60208661054889670de0b6b3a76400006105418a610539600282015494600183015490610e72565b905490610ee1565b0490610f14565b9051908152f35b61055e90600797949754610ee1565b90670de0b6b3a7640000918281029281840414901517156105ab5750602095506105a2610548949361059c670de0b6b3a76400009461054194610ef4565b90610f14565b95839450610511565b634e487b7160e01b815260118752602490fd5b5080151561050c565b50503461018a578160031936011261018a576020906006549051908152f35b50503461018a578160031936011261018a57610606600954421015610dda565b61060e610f21565b61061733610f95565b338252600a602052600281832001908282549255610640826001600160a01b0360035416610ff5565b519081527fd8138f8a3f377c5259ca548e70e4c2de94f129f5a11036a15b69513cba2b426a60203392a280f35b919050346103565760203660031901126103565781359161068c611083565b610694610f21565b61069d33610f95565b338452600b602052818420805460ff811615610778575b505060025482516323b872dd60e01b602082015233602482015230604482015260648082018690528152906001600160a01b031660a0820167ffffffffffffffff81118382101761076557845261070b9190611101565b338452600a602052818420610721848254610f14565b905561072e838254610f14565b905561073861105a565b519081527f9e71bc8eea02a63969f509818f2dafb9254532904319f9dbda79b67bd34a5f3d60203392a280f35b634e487b7160e01b875260418452602487fd5b60019060ff19161790556008546001810180911161079a5760085538806106b4565b634e487b7160e01b855260118252602485fd5b50503461018a578160031936011261018a576020906008549051908152f35b83903461018a57602036600319011261018a576107f56001600160a01b03600154163314610e95565b3560095580f35b50503461018a578160031936011261018a576020906007549051908152f35b50503461018a57602036600319011261018a57806060926001600160a01b03610842610dbf565b168152600a60205220805491600260018301549201549181519384526020840152820152f35b83346108bc5760203660031901126108bc57610882610dbf565b73ffffffffffffffffffffffffffffffffffffffff19600154916001600160a01b03906108b28285163314610e95565b1691161760015580f35b80fd5b50503461018a578160031936011261018a576020906009549051908152f35b50503461018a578160031936011261018a5760207f62e78cea01bee320cd4e420270b5ea74000d11b0c9f74754ebdbfc544b05a2589161092a6001600160a01b03600154163314610e95565b610932611083565b7fcd5ed15c6e187e77e9aee88184c21f4f2182ab5827cb3b7e07fbedcd63f03300805460ff1916600117905551338152a180f35b90503461035657826003193601126103565760209250549051908152f35b83346108bc5760203660031901126108bc576109a66109a1610dbf565b610f95565b80f35b50503461018a578160031936011261018a5760209060ff7fcd5ed15c6e187e77e9aee88184c21f4f2182ab5827cb3b7e07fbedcd63f03300541690519015158152f35b50503461018a578160031936011261018a5760209051670de0b6b3a76400008152f35b50503461018a578160031936011261018a576020906001600160a01b03600254169051908152f35b9190503461035657602036600319011261035657813591610a5c600954421015610dda565b610a64610f21565b610a6d33610f95565b338452600a602052818420610a8f848254610a8a82821015610e26565b610e72565b9055610aa6836001600160a01b0360025416610ff5565b610ab1838254610e72565b9055519081527f0f5bb82176feb1b5e747e28471aa92156a04d9f3ab9f45f28e2d704232b93f7560203392a280f35b91905034610356576020366003190112610356576001600160a01b038354163303610b155750610b0e610f21565b3560075580f35b906020606492519162461bcd60e51b8352820152600c60248201527f6f6e6c79207570646174657200000000000000000000000000000000000000006044820152fd5b905034610356578260031936011261035657610b806001600160a01b03600154163314610e95565b7fcd5ed15c6e187e77e9aee88184c21f4f2182ab5827cb3b7e07fbedcd63f033009081549060ff821615610be2575060ff19169055513381527f5db9ee0a495bf2e6ff9c91a7834c1ba4fdd244a5e8aa4e537bd38aeae4b073aa90602090a180f35b8351638dfc202b60e01b8152fd5b83346108bc57806003193601126108bc576109a6610f21565b83346108bc5760203660031901126108bc57610c23610dbf565b6001600160a01b0390610c3b82600154163314610e95565b1673ffffffffffffffffffffffffffffffffffffffff1982541617815580f35b9190503461035657602036600319011261035657813591610c89600954421015610c8481610dda565b610dda565b610c91610f21565b610c9a33610f95565b338452600a602052610d1b8360028487200186815491556001600160a01b0390610cc8818360035416610ff5565b85519081527fd8138f8a3f377c5259ca548e70e4c2de94f129f5a11036a15b69513cba2b426a60203392a2338752600a602052848720610d10838254610a8a82821015610e26565b905560025416610ff5565b610d26838254610e72565b9055610d3061105a565b519081527f0f5bb82176feb1b5e747e28471aa92156a04d9f3ab9f45f28e2d704232b93f7560203392a280f35b50503461018a578160031936011261018a576020906001600160a01b03600354169051908152f35b849084346103565760203660031901126103565760ff906020936001600160a01b03610daf610dbf565b168152600b855220541615158152f35b600435906001600160a01b0382168203610dd557565b600080fd5b15610de157565b60405162461bcd60e51b815260206004820152600d60248201527f7374696c6c206c6f636b696e67000000000000000000000000000000000000006044820152606490fd5b15610e2d57565b60405162461bcd60e51b815260206004820152601260248201527f6e6f7420656e6f7567682062616c616e636500000000000000000000000000006044820152606490fd5b91908203918211610e7f57565b634e487b7160e01b600052601160045260246000fd5b15610e9c57565b60405162461bcd60e51b815260206004820152600a60248201527f6f6e6c792061646d696e000000000000000000000000000000000000000000006044820152606490fd5b81810292918115918404141715610e7f57565b8115610efe570490565b634e487b7160e01b600052601260045260246000fd5b91908201809211610e7f57565b610f2d60065442610e72565b6004549081151580610f8c575b610f47575b505042600655565b610f5390600754610ee1565b670de0b6b3a764000090818102918183041490151715610e7f57610f8291610f7a91610ef4565b600554610f14565b6005553880610f3f565b50801515610f3a565b6001600160a01b0390610fa6610f21565b16600052600a602052604060002060055490610fec6002670de0b6b3a7640000610fe1610fd96001860196875490610e72565b855490610ee1565b049201918254610f14565b90556005549055565b906040519063a9059cbb60e01b60208301523360248301526044820152604481526080810181811067ffffffffffffffff82111761104457604052611042916001600160a01b0316611101565b565b634e487b7160e01b600052604160045260246000fd5b611062610f21565b6301e1338060056004540404600755600954421161107c57565b6000600755565b60ff7fcd5ed15c6e187e77e9aee88184c21f4f2182ab5827cb3b7e07fbedcd63f0330054166110ae57565b60405163d93c066560e01b8152600490fd5b60ff7ff0c57e16840df040f15088dc2f81fe391c3923bec73e23a9662efc9c229c6a005460401c16156110ef57565b604051631afcd79f60e31b8152600490fd5b906000602091828151910182855af11561115d576000513d61115457506001600160a01b0381163b155b6111325750565b604051635274afe760e01b81526001600160a01b039091166004820152602490fd5b6001141561112b565b6040513d6000823e3d90fdfea164736f6c6343000818000a",
  "devdoc": {
    "errors": {
      "EnforcedPause()": [
        {
          "details": "The operation failed because the contract is paused."
        }
      ],
      "ExpectedPause()": [
        {
          "details": "The operation failed because the contract is not paused."
        }
      ],
      "InvalidInitialization()": [
        {
          "details": "The contract is already initialized."
        }
      ],
      "NotInitializing()": [
        {
          "details": "The contract is not initializing."
        }
      ],
      "SafeERC20FailedOperation(address)": [
        {
          "details": "An operation with an ERC-20 token failed."
        }
      ]
    },
    "events": {
      "Initialized(uint64)": {
        "details": "Triggered when the contract has been initialized or reinitialized."
      },
      "Paused(address)": {
        "details": "Emitted when the pause is triggered by `account`."
      },
      "Unpaused(address)": {
        "details": "Emitted when the pause is lifted by `account`."
      }
    },
    "kind": "dev",
    "methods": {
      "paused()": {
        "details": "Returns true if the contract is paused, and false otherwise."
      }
    },
    "version": 1
  },
  "userdoc": {
    "kind": "user",
    "methods": {},
    "version": 1
  },
  "storageLayout": {
    "storage": [
      {
        "astId": 1084,
        "contract": "contracts/ERC20StakingUpgradeable.sol:ERC20StakingUpgradeable",
        "label": "updater",
        "offset": 0,
        "slot": "0",
        "type": "t_address"
      },
      {
        "astId": 1086,
        "contract": "contracts/ERC20StakingUpgradeable.sol:ERC20StakingUpgradeable",
        "label": "admin",
        "offset": 0,
        "slot": "1",
        "type": "t_address"
      },
      {
        "astId": 1088,
        "contract": "contracts/ERC20StakingUpgradeable.sol:ERC20StakingUpgradeable",
        "label": "tokenStaked",
        "offset": 0,
        "slot": "2",
        "type": "t_address"
      },
      {
        "astId": 1090,
        "contract": "contracts/ERC20StakingUpgradeable.sol:ERC20StakingUpgradeable",
        "label": "tokenRewards",
        "offset": 0,
        "slot": "3",
        "type": "t_address"
      },
      {
        "astId": 1092,
        "contract": "contracts/ERC20StakingUpgradeable.sol:ERC20StakingUpgradeable",
        "label": "totalStaked",
        "offset": 0,
        "slot": "4",
        "type": "t_uint256"
      },
      {
        "astId": 1094,
        "contract": "contracts/ERC20StakingUpgradeable.sol:ERC20StakingUpgradeable",
        "label": "globalIndex",
        "offset": 0,
        "slot": "5",
        "type": "t_uint256"
      },
      {
        "astId": 1096,
        "contract": "contracts/ERC20StakingUpgradeable.sol:ERC20StakingUpgradeable",
        "label": "lastUpdated",
        "offset": 0,
        "slot": "6",
        "type": "t_uint256"
      },
      {
        "astId": 1098,
        "contract": "contracts/ERC20StakingUpgradeable.sol:ERC20StakingUpgradeable",
        "label": "rps",
        "offset": 0,
        "slot": "7",
        "type": "t_uint256"
      },
      {
        "astId": 1100,
        "contract": "contracts/ERC20StakingUpgradeable.sol:ERC20StakingUpgradeable",
        "label": "totalStaker",
        "offset": 0,
        "slot": "8",
        "type": "t_uint256"
      },
      {
        "astId": 1102,
        "contract": "contracts/ERC20StakingUpgradeable.sol:ERC20StakingUpgradeable",
        "label": "timeUnlock",
        "offset": 0,
        "slot": "9",
        "type": "t_uint256"
      },
      {
        "astId": 1110,
        "contract": "contracts/ERC20StakingUpgradeable.sol:ERC20StakingUpgradeable",
        "label": "stakers",
        "offset": 0,
        "slot": "10",
        "type": "t_mapping(t_address,t_struct(StakerInfo)1082_storage)"
      },
      {
        "astId": 1114,
        "contract": "contracts/ERC20StakingUpgradeable.sol:ERC20StakingUpgradeable",
        "label": "newStakers",
        "offset": 0,
        "slot": "11",
        "type": "t_mapping(t_address,t_bool)"
      }
    ],
    "types": {
      "t_address": {
        "encoding": "inplace",
        "label": "address",
        "numberOfBytes": "20"
      },
      "t_bool": {
        "encoding": "inplace",
        "label": "bool",
        "numberOfBytes": "1"
      },
      "t_mapping(t_address,t_bool)": {
        "encoding": "mapping",
        "key": "t_address",
        "label": "mapping(address => bool)",
        "numberOfBytes": "32",
        "value": "t_bool"
      },
      "t_mapping(t_address,t_struct(StakerInfo)1082_storage)": {
        "encoding": "mapping",
        "key": "t_address",
        "label": "mapping(address => struct ERC20StakingUpgradeable.StakerInfo)",
        "numberOfBytes": "32",
        "value": "t_struct(StakerInfo)1082_storage"
      },
      "t_struct(StakerInfo)1082_storage": {
        "encoding": "inplace",
        "label": "struct ERC20StakingUpgradeable.StakerInfo",
        "members": [
          {
            "astId": 1077,
            "contract": "contracts/ERC20StakingUpgradeable.sol:ERC20StakingUpgradeable",
            "label": "balance",
            "offset": 0,
            "slot": "0",
            "type": "t_uint256"
          },
          {
            "astId": 1079,
            "contract": "contracts/ERC20StakingUpgradeable.sol:ERC20StakingUpgradeable",
            "label": "index",
            "offset": 0,
            "slot": "1",
            "type": "t_uint256"
          },
          {
            "astId": 1081,
            "contract": "contracts/ERC20StakingUpgradeable.sol:ERC20StakingUpgradeable",
            "label": "pendingReward",
            "offset": 0,
            "slot": "2",
            "type": "t_uint256"
          }
        ],
        "numberOfBytes": "96"
      },
      "t_uint256": {
        "encoding": "inplace",
        "label": "uint256",
        "numberOfBytes": "32"
      }
    }
  }
}