{
  "address": "0x6C64fFE5C3fEc13420E4e1AFB82E6e4D4Bfa66Df",
  "abi": [
    {
      "inputs": [],
      "name": "EnforcedPause",
      "type": "error"
    },
    {
      "inputs": [],
      "name": "ExpectedPause",
      "type": "error"
    },
    {
      "inputs": [],
      "name": "InvalidInitialization",
      "type": "error"
    },
    {
      "inputs": [],
      "name": "NotInitializing",
      "type": "error"
    },
    {
      "inputs": [],
      "name": "ReentrancyGuardReentrantCall",
      "type": "error"
    },
    {
      "inputs": [
        {
          "internalType": "address",
          "name": "token",
          "type": "address"
        }
      ],
      "name": "SafeERC20FailedOperation",
      "type": "error"
    },
    {
      "anonymous": false,
      "inputs": [
        {
          "indexed": true,
          "internalType": "address",
          "name": "user",
          "type": "address"
        },
        {
          "indexed": false,
          "internalType": "uint256",
          "name": "amount",
          "type": "uint256"
        }
      ],
      "name": "Claimed",
      "type": "event"
    },
    {
      "anonymous": false,
      "inputs": [
        {
          "indexed": false,
          "internalType": "uint64",
          "name": "version",
          "type": "uint64"
        }
      ],
      "name": "Initialized",
      "type": "event"
    },
    {
      "anonymous": false,
      "inputs": [
        {
          "indexed": false,
          "internalType": "address",
          "name": "account",
          "type": "address"
        }
      ],
      "name": "Paused",
      "type": "event"
    },
    {
      "anonymous": false,
      "inputs": [
        {
          "indexed": true,
          "internalType": "address",
          "name": "user",
          "type": "address"
        },
        {
          "indexed": false,
          "internalType": "uint256",
          "name": "tokenId",
          "type": "uint256"
        },
        {
          "indexed": false,
          "internalType": "uint256",
          "name": "liquidity",
          "type": "uint256"
        }
      ],
      "name": "Staked",
      "type": "event"
    },
    {
      "anonymous": false,
      "inputs": [
        {
          "indexed": false,
          "internalType": "address",
          "name": "account",
          "type": "address"
        }
      ],
      "name": "Unpaused",
      "type": "event"
    },
    {
      "anonymous": false,
      "inputs": [
        {
          "indexed": true,
          "internalType": "address",
          "name": "user",
          "type": "address"
        },
        {
          "indexed": false,
          "internalType": "uint256",
          "name": "tokenId",
          "type": "uint256"
        }
      ],
      "name": "Unstaked",
      "type": "event"
    },
    {
      "inputs": [],
      "name": "CALCULATE_PRECISION",
      "outputs": [
        {
          "internalType": "uint256",
          "name": "",
          "type": "uint256"
        }
      ],
      "stateMutability": "view",
      "type": "function"
    },
    {
      "inputs": [],
      "name": "admin",
      "outputs": [
        {
          "internalType": "address",
          "name": "",
          "type": "address"
        }
      ],
      "stateMutability": "view",
      "type": "function"
    },
    {
      "inputs": [],
      "name": "claimReward",
      "outputs": [],
      "stateMutability": "nonpayable",
      "type": "function"
    },
    {
      "inputs": [],
      "name": "feePool",
      "outputs": [
        {
          "internalType": "uint24",
          "name": "",
          "type": "uint24"
        }
      ],
      "stateMutability": "view",
      "type": "function"
    },
    {
      "inputs": [],
      "name": "globalIndex",
      "outputs": [
        {
          "internalType": "uint256",
          "name": "",
          "type": "uint256"
        }
      ],
      "stateMutability": "view",
      "type": "function"
    },
    {
      "inputs": [
        {
          "internalType": "address",
          "name": "_updater",
          "type": "address"
        },
        {
          "internalType": "address",
          "name": "_positionManager",
          "type": "address"
        },
        {
          "internalType": "address",
          "name": "_token0",
          "type": "address"
        },
        {
          "internalType": "address",
          "name": "_token1",
          "type": "address"
        },
        {
          "internalType": "uint24",
          "name": "_feePool",
          "type": "uint24"
        },
        {
          "internalType": "int24",
          "name": "_tickLower",
          "type": "int24"
        },
        {
          "internalType": "int24",
          "name": "_tickUpper",
          "type": "int24"
        },
        {
          "internalType": "address",
          "name": "_tokenRewards",
          "type": "address"
        },
        {
          "internalType": "uint256",
          "name": "_rps",
          "type": "uint256"
        },
        {
          "internalType": "uint256",
          "name": "_timeUnlock",
          "type": "uint256"
        }
      ],
      "name": "initialize",
      "outputs": [],
      "stateMutability": "nonpayable",
      "type": "function"
    },
    {
      "inputs": [],
      "name": "lastUpdated",
      "outputs": [
        {
          "internalType": "uint256",
          "name": "",
          "type": "uint256"
        }
      ],
      "stateMutability": "view",
      "type": "function"
    },
    {
      "inputs": [
        {
          "internalType": "address",
          "name": "",
          "type": "address"
        }
      ],
      "name": "newStakers",
      "outputs": [
        {
          "internalType": "bool",
          "name": "",
          "type": "bool"
        }
      ],
      "stateMutability": "view",
      "type": "function"
    },
    {
      "inputs": [
        {
          "internalType": "address",
          "name": "",
          "type": "address"
        },
        {
          "internalType": "address",
          "name": "_from",
          "type": "address"
        },
        {
          "internalType": "uint256",
          "name": "_tokenId",
          "type": "uint256"
        },
        {
          "internalType": "bytes",
          "name": "",
          "type": "bytes"
        }
      ],
      "name": "onERC721Received",
      "outputs": [
        {
          "internalType": "bytes4",
          "name": "",
          "type": "bytes4"
        }
      ],
      "stateMutability": "nonpayable",
      "type": "function"
    },
    {
      "inputs": [],
      "name": "pause",
      "outputs": [],
      "stateMutability": "nonpayable",
      "type": "function"
    },
    {
      "inputs": [],
      "name": "paused",
      "outputs": [
        {
          "internalType": "bool",
          "name": "",
          "type": "bool"
        }
      ],
      "stateMutability": "view",
      "type": "function"
    },
    {
      "inputs": [],
      "name": "positionManager",
      "outputs": [
        {
          "internalType": "contract INonfungiblePositionManager",
          "name": "",
          "type": "address"
        }
      ],
      "stateMutability": "view",
      "type": "function"
    },
    {
      "inputs": [],
      "name": "rps",
      "outputs": [
        {
          "internalType": "uint256",
          "name": "",
          "type": "uint256"
        }
      ],
      "stateMutability": "view",
      "type": "function"
    },
    {
      "inputs": [
        {
          "internalType": "uint256",
          "name": "",
          "type": "uint256"
        }
      ],
      "name": "stakedNFTs",
      "outputs": [
        {
          "internalType": "address",
          "name": "owner",
          "type": "address"
        },
        {
          "internalType": "uint256",
          "name": "liquidity",
          "type": "uint256"
        },
        {
          "internalType": "enum UniswapV3LPStakingUpgradeable.statusNFT",
          "name": "status",
          "type": "uint8"
        }
      ],
      "stateMutability": "view",
      "type": "function"
    },
    {
      "inputs": [
        {
          "internalType": "address",
          "name": "",
          "type": "address"
        },
        {
          "internalType": "uint256",
          "name": "",
          "type": "uint256"
        }
      ],
      "name": "stakerToIndexToNFTID",
      "outputs": [
        {
          "internalType": "uint256",
          "name": "",
          "type": "uint256"
        }
      ],
      "stateMutability": "view",
      "type": "function"
    },
    {
      "inputs": [
        {
          "internalType": "address",
          "name": "",
          "type": "address"
        }
      ],
      "name": "stakerToNumberStakeNFT",
      "outputs": [
        {
          "internalType": "uint256",
          "name": "",
          "type": "uint256"
        }
      ],
      "stateMutability": "view",
      "type": "function"
    },
    {
      "inputs": [
        {
          "internalType": "address",
          "name": "",
          "type": "address"
        }
      ],
      "name": "stakers",
      "outputs": [
        {
          "internalType": "uint256",
          "name": "balance",
          "type": "uint256"
        },
        {
          "internalType": "uint256",
          "name": "index",
          "type": "uint256"
        },
        {
          "internalType": "uint256",
          "name": "pendingReward",
          "type": "uint256"
        }
      ],
      "stateMutability": "view",
      "type": "function"
    },
    {
      "inputs": [],
      "name": "tickLower",
      "outputs": [
        {
          "internalType": "int24",
          "name": "",
          "type": "int24"
        }
      ],
      "stateMutability": "view",
      "type": "function"
    },
    {
      "inputs": [],
      "name": "tickUpper",
      "outputs": [
        {
          "internalType": "int24",
          "name": "",
          "type": "int24"
        }
      ],
      "stateMutability": "view",
      "type": "function"
    },
    {
      "inputs": [],
      "name": "timeUnlock",
      "outputs": [
        {
          "internalType": "uint256",
          "name": "",
          "type": "uint256"
        }
      ],
      "stateMutability": "view",
      "type": "function"
    },
    {
      "inputs": [],
      "name": "token0",
      "outputs": [
        {
          "internalType": "address",
          "name": "",
          "type": "address"
        }
      ],
      "stateMutability": "view",
      "type": "function"
    },
    {
      "inputs": [],
      "name": "token1",
      "outputs": [
        {
          "internalType": "address",
          "name": "",
          "type": "address"
        }
      ],
      "stateMutability": "view",
      "type": "function"
    },
    {
      "inputs": [],
      "name": "tokenRewards",
      "outputs": [
        {
          "internalType": "address",
          "name": "",
          "type": "address"
        }
      ],
      "stateMutability": "view",
      "type": "function"
    },
    {
      "inputs": [],
      "name": "totalStaked",
      "outputs": [
        {
          "internalType": "uint256",
          "name": "",
          "type": "uint256"
        }
      ],
      "stateMutability": "view",
      "type": "function"
    },
    {
      "inputs": [],
      "name": "totalStaker",
      "outputs": [
        {
          "internalType": "uint256",
          "name": "",
          "type": "uint256"
        }
      ],
      "stateMutability": "view",
      "type": "function"
    },
    {
      "inputs": [],
      "name": "unpause",
      "outputs": [],
      "stateMutability": "nonpayable",
      "type": "function"
    },
    {
      "inputs": [
        {
          "internalType": "uint256",
          "name": "tokenId",
          "type": "uint256"
        }
      ],
      "name": "unstake",
      "outputs": [],
      "stateMutability": "nonpayable",
      "type": "function"
    },
    {
      "inputs": [
        {
          "internalType": "address",
          "name": "_admin",
          "type": "address"
        }
      ],
      "name": "updateAdmin",
      "outputs": [],
      "stateMutability": "nonpayable",
      "type": "function"
    },
    {
      "inputs": [],
      "name": "updateGlobalIndex",
      "outputs": [],
      "stateMutability": "nonpayable",
      "type": "function"
    },
    {
      "inputs": [
        {
          "internalType": "address",
          "name": "account",
          "type": "address"
        }
      ],
      "name": "updateReward",
      "outputs": [],
      "stateMutability": "nonpayable",
      "type": "function"
    },
    {
      "inputs": [
        {
          "internalType": "uint256",
          "name": "_rps",
          "type": "uint256"
        }
      ],
      "name": "updateRps",
      "outputs": [],
      "stateMutability": "nonpayable",
      "type": "function"
    },
    {
      "inputs": [
        {
          "internalType": "int24",
          "name": "_tickLower",
          "type": "int24"
        },
        {
          "internalType": "int24",
          "name": "_tickUpper",
          "type": "int24"
        }
      ],
      "name": "updateTick",
      "outputs": [],
      "stateMutability": "nonpayable",
      "type": "function"
    },
    {
      "inputs": [
        {
          "internalType": "uint256",
          "name": "_timeUnlock",
          "type": "uint256"
        }
      ],
      "name": "updateTimeUnlock",
      "outputs": [],
      "stateMutability": "nonpayable",
      "type": "function"
    },
    {
      "inputs": [
        {
          "internalType": "address",
          "name": "_updater",
          "type": "address"
        }
      ],
      "name": "updateUpdater",
      "outputs": [],
      "stateMutability": "nonpayable",
      "type": "function"
    },
    {
      "inputs": [],
      "name": "updater",
      "outputs": [
        {
          "internalType": "address",
          "name": "",
          "type": "address"
        }
      ],
      "stateMutability": "view",
      "type": "function"
    },
    {
      "inputs": [
        {
          "internalType": "address",
          "name": "account",
          "type": "address"
        }
      ],
      "name": "viewReward",
      "outputs": [
        {
          "internalType": "uint256",
          "name": "",
          "type": "uint256"
        }
      ],
      "stateMutability": "view",
      "type": "function"
    },
    {
      "inputs": [
        {
          "internalType": "address",
          "name": "token",
          "type": "address"
        },
        {
          "internalType": "uint256",
          "name": "amount",
          "type": "uint256"
        }
      ],
      "name": "withdraw",
      "outputs": [],
      "stateMutability": "nonpayable",
      "type": "function"
    }
  ],
  "transactionHash": "0x6ff2ee4a8f07953db4340d286aea709be50187325f65f776ad24147853b763c8",
  "args": [],
  "numDeployments": 1,
  "solcInputHash": "393d4ab415d805a02fb3f90d59dfe231",
  "bytecode": "0x6080806040523461001657611913908161001c8239f35b600080fdfe608080604052600436101561001357600080fd5b600090813560e01c90816303f35bce1461153557508063091c76f51461150e5780630dfe1681146114e7578063150b7a0214610e0d5780631e81399314610dd557806321ecdd6614610b5d5780632e17de781461095657806333aae5c81461091457806333e81b60146108fb5780633f4ba83a146108645780634cc9fc1d146107ea57806355b812a8146107c6578063574f704b146107a357806359c4f9051461077f5780635c975abb1461073d578063632447c91461071b578063637af51c1461021e578063697c72501461068f578063791b98bc14610668578063817b1cd21461064a5780638456cb59146105c35780638eb599a4146105a55780639168ae721461055557806392b4bb50146105375780639b3f691b14610507578063a5879de3146104e9578063ae2e933b146104c3578063b865749d14610456578063b88a802f146103ce578063d0b06f5d146103b0578063d0eede67146102ac578063d21220a714610285578063d890a87014610267578063df034cd014610240578063e2f273bd1461021e578063f3fef3a3146101e05763f851a440146101b857600080fd5b346101dd57806003193601126101dd576001600160a01b036020915416604051908152f35b80fd5b50346101dd5760403660031901126101dd5761021b6101fd61156f565b6102126001600160a01b0384541633146116f4565b60243590611816565b80f35b50346101dd5760203660031901126101dd5761021b61023b61156f565b6117a0565b50346101dd57806003193601126101dd5760206001600160a01b0360015416604051908152f35b50346101dd57806003193601126101dd576020600854604051908152f35b50346101dd57806003193601126101dd5760206001600160a01b0360045416604051908152f35b50346101dd5760203660031901126101dd576001600160a01b036102ce61156f565b168152600c60205260408120906102e760095442611640565b6008549160055491821515806103a7575b61033b575b602061033385670de0b6b3a764000061032c89610324600282015494600183015490611640565b90549061164d565b04906115d1565b604051908152f35b6103479060075461164d565b90670de0b6b3a764000091828102928184041490151715610393575061032c6103896103339461038360209795670de0b6b3a764000095611660565b906115d1565b93508294506102fd565b634e487b7160e01b81526011600452602490fd5b508015156102f8565b50346101dd57806003193601126101dd576020600954604051908152f35b50346101dd57806003193601126101dd576103ed600b544210156115f4565b6103f5611680565b6103fe33611740565b338152600c602052600260408220018181549155610427816001600160a01b0360065416611816565b6040519081527fd8138f8a3f377c5259ca548e70e4c2de94f129f5a11036a15b69513cba2b426a60203392a280f35b50346101dd5760203660031901126101dd576004358152600d602052604081206001600160a01b038154169060ff600260018301549201541690604051928352602083015260038110156104af57606092506040820152f35b634e487b7160e01b83526021600452602483fd5b50346101dd57806003193601126101dd57602062ffffff60045460a01c16604051908152f35b50346101dd57806003193601126101dd576020600a54604051908152f35b50346101dd5760203660031901126101dd5761052e6001600160a01b0382541633146116f4565b600435600b5580f35b50346101dd57806003193601126101dd576020600754604051908152f35b50346101dd5760203660031901126101dd5760406060916001600160a01b0361057c61156f565b168152600c60205220805490600260018201549101549060405192835260208301526040820152f35b50346101dd57806003193601126101dd576020600b54604051908152f35b50346101dd57806003193601126101dd576105e96001600160a01b0382541633146116f4565b6105f16117d9565b7fcd5ed15c6e187e77e9aee88184c21f4f2182ab5827cb3b7e07fbedcd63f03300600160ff198254161790557f62e78cea01bee320cd4e420270b5ea74000d11b0c9f74754ebdbfc544b05a2586020604051338152a180f35b50346101dd57806003193601126101dd576020600554604051908152f35b50346101dd57806003193601126101dd5760206001600160a01b0360025416604051908152f35b50346101dd5760403660031901126101dd576004358060020b8103610716576024358060020b8103610716576106d06001600160a01b0384541633146116f4565b7fffffff000000000000ffffffffffffffffffffffffffffffffffffffffffffff62ffffff60b81b6004549260d01b62ffffff60d01b169360b81b169116171760045580f35b600080fd5b50346101dd5760203660031901126101dd5761021b61073861156f565b611740565b50346101dd57806003193601126101dd57602060ff7fcd5ed15c6e187e77e9aee88184c21f4f2182ab5827cb3b7e07fbedcd63f0330054166040519015158152f35b50346101dd57806003193601126101dd57602060045460b81c60020b604051908152f35b50346101dd57806003193601126101dd576020604051670de0b6b3a76400008152f35b50346101dd57806003193601126101dd57602060045460d01c60020b604051908152f35b50346101dd5760203660031901126101dd576001600160a01b0360015416330361081f57610816611680565b60043560075580f35b60405162461bcd60e51b815260206004820152600c60248201527f6f6e6c79207570646174657200000000000000000000000000000000000000006044820152606490fd5b50346101dd57806003193601126101dd5761088a6001600160a01b0382541633146116f4565b7fcd5ed15c6e187e77e9aee88184c21f4f2182ab5827cb3b7e07fbedcd63f03300805460ff8116156108e95760ff191690557f5db9ee0a495bf2e6ff9c91a7834c1ba4fdd244a5e8aa4e537bd38aeae4b073aa6020604051338152a180f35b604051638dfc202b60e01b8152600490fd5b50346101dd57806003193601126101dd5761021b611680565b50346101dd5760403660031901126101dd5760406020916001600160a01b0361093b61156f565b16815260108352818120602435825283522054604051908152f35b50346101dd57602080600319360112610abb576004359061097b600b544210156115f4565b818352600d815260408320338452600c8252604084209060ff6002820154166003811015610b4957600103610b04576001600160a01b03338183541603610abf5785906109c6611680565b6109cf33611740565b60025416803b15610abb578190606460405180948193632142170760e11b83523060048401523360248401528a60448401525af18015610ab057610a60575b507f0f5bb82176feb1b5e747e28471aa92156a04d9f3ab9f45f28e2d704232b93f7592916001610a51920190610a4682548254611640565b905554600554611640565b6005556040519283523392a280f35b67ffffffffffffffff8196929611610a9c57604052937f0f5bb82176feb1b5e747e28471aa92156a04d9f3ab9f45f28e2d704232b93f75610a0e565b634e487b7160e01b82526041600452602482fd5b6040513d88823e3d90fd5b5080fd5b60405162461bcd60e51b815260048101859052600d60248201527f4e6f74204e4654206f776e6572000000000000000000000000000000000000006044820152606490fd5b60405162461bcd60e51b815260048101849052600f60248201527f4e4654206e6f74207374616b696e6700000000000000000000000000000000006044820152606490fd5b634e487b7160e01b86526021600452602486fd5b50346101dd576101403660031901126101dd57610b7861156f565b610b80611585565b604435916001600160a01b0391828416809403610dd15760643593838516809503610dcd576084359062ffffff82168203610dc95760a435908160020b8203610dc55760c435928360020b8403610dc15760e43595878716809703610dbd577ff0c57e16840df040f15088dc2f81fe391c3923bec73e23a9662efc9c229c6a009889549360ff8560401c16159967ffffffffffffffff861680159081610db5575b6001149081610dab575b159081610da2575b50610d90578c988176ffffff0000000000000000000000000000000000000000958e62ffffff60b81b998f600167ffffffffffffffff198316178355610d70575b5050610c7e6118c5565b610c866118c5565b7fcd5ed15c6e187e77e9aee88184c21f4f2182ab5827cb3b7e07fbedcd63f0330060ff19815416905573ffffffffffffffffffffffffffffffffffffffff199b338d825416179055168a6001541617600155168860025416176002558760035416176003556004549560d01b62ffffff60d01b169562ffffff60e81b16179160a01b16179160b81b16171760045560065416176006556101043560075561012435600b55610d32575080f35b68ff00000000000000001981541690557fc7f505b2f371ae2175ee4913f4499e1f2633a7b5936321eed1cdaeb6115181d2602060405160018152a180f35b68ffffffffffffffffff1916680100000000000000011790558e38610c74565b60405163f92ee8a960e01b8152600490fd5b90501538610c33565b303b159150610c2b565b8c9150610c21565b8980fd5b8880fd5b8780fd5b8680fd5b8580fd5b8480fd5b50346101dd5760203660031901126101dd5760406020916001600160a01b03610dfc61156f565b168152600f83522054604051908152f35b50346101dd5760803660031901126101dd57610e2761156f565b50610e30611585565b60643567ffffffffffffffff81116114e357366023820112156114e357806004013567ffffffffffffffff811161141d5736910160240111610abb5760027f9b779b17422d0df92223018b32b4d1fa46e071723d6817e2486d003becc55f0054146114d15760027f9b779b17422d0df92223018b32b4d1fa46e071723d6817e2486d003becc55f0055610ec16117d9565b610ec9611680565b610ed281611740565b306001600160a01b0382161461148c576001600160a01b0360025416803303611447576040519060c0820182811067ffffffffffffffff82111761142157602491610180916040528584528560208501528560408501528560608501528560808501528560a08501526040519283809263133f757160e31b825260443560048301525afa801561143c5784908590869387918891899161131e575b50916001600160a01b0393916001600160801b0385941660a089015260020b608088015260020b606087015262ffffff80951660408701521691826020860152168084526001600160a01b0360035416149081611309575b50156112c45780604083015116600454918260a01c160361127f576001600160801b0360a0830151161561123a57606082015160020b8160b81c60020b149081611222575b50156111dd576044358352600d60205260408320926001600160a01b03831673ffffffffffffffffffffffffffffffffffffffff1985541617845560026001600160801b0360a08401511694600195868201550160ff199085828254161790556001600160a01b0384168252600c602052604082206110976001600160801b0360a08601511682546115d1565b90556110b26001600160801b0360a0850151166005546115d1565b6005556001600160a01b0384168252600e602052846040832091825460ff8116156111ac575b505050506001600160a01b0383168152601060205260408120600f6020526040822054825260205260443560408220556001600160a01b0383168152600f6020526040812080549185830180931161039357506001600160801b0360a07f1449c6dd7851abc30abf37f57715f492010519147cc2652fbc38202c18a6ee90946040946001600160a01b03945501511693825194604435865260208601521692a27f9b779b17422d0df92223018b32b4d1fa46e071723d6817e2486d003becc55f0055604051630a85bd0160e11b8152602090f35b16179055600a548481018091116111c957600a55388481806110d8565b634e487b7160e01b82526011600452602482fd5b60405162461bcd60e51b815260206004820152600c60248201527f496e76616c6964207469636b00000000000000000000000000000000000000006044820152606490fd5b9050608082015160020b9060d01c60020b143861100a565b60405162461bcd60e51b815260206004820152601160248201527f496e76616c6964206c69717569646974790000000000000000000000000000006044820152606490fd5b60405162461bcd60e51b815260206004820152600b60248201527f496e76616c6964206665650000000000000000000000000000000000000000006044820152606490fd5b60405162461bcd60e51b815260206004820152600d60248201527f496e76616c696420746f6b656e000000000000000000000000000000000000006044820152606490fd5b90506001600160a01b03600454161438610fc5565b955050505050506101803d61018011611435575b67ffffffffffffffff601f8201601f1916830190811190831117611421578161018091601f19601f82011682016040528101031261141d5780516bffffffffffffffffffffffff81160361141d5761138c6020820161159b565b506113996040820161159b565b6113a56060830161159b565b9060808301519062ffffff82168203610dc9576001600160a01b039182916113cf60a087016115af565b956001600160801b036113e460c083016115af565b9261140c6101606113f760e086016115bd565b9461140561014082016115bd565b50016115bd565b509693979291929450509193610f6d565b8380fd5b634e487b7160e01b85526041600452602485fd5b503d611332565b6040513d86823e3d90fd5b60405162461bcd60e51b815260206004820152601860248201527f496e76616c696420506f736974696f6e204d616e6167657200000000000000006044820152606490fd5b60405162461bcd60e51b815260206004820152600e60248201527f496e76616c69642073656e6465720000000000000000000000000000000000006044820152606490fd5b604051633ee5aeb560e01b8152600490fd5b8280fd5b50346101dd57806003193601126101dd5760206001600160a01b0360035416604051908152f35b50346101dd57806003193601126101dd5760206001600160a01b0360065416604051908152f35b905034610abb576020366003190112610abb5760ff60406020936001600160a01b0361155f61156f565b168152600e855220541615158152f35b600435906001600160a01b038216820361071657565b602435906001600160a01b038216820361071657565b51906001600160a01b038216820361071657565b51908160020b820361071657565b51906001600160801b038216820361071657565b919082018092116115de57565b634e487b7160e01b600052601160045260246000fd5b156115fb57565b60405162461bcd60e51b815260206004820152600d60248201527f7374696c6c206c6f636b696e67000000000000000000000000000000000000006044820152606490fd5b919082039182116115de57565b818102929181159184041417156115de57565b811561166a570490565b634e487b7160e01b600052601260045260246000fd5b61168c60095442611640565b60055490811515806116eb575b6116a6575b505042600955565b6116b29060075461164d565b670de0b6b3a7640000908181029181830414901517156115de576116e1916116d991611660565b6008546115d1565b600855388061169e565b50801515611699565b156116fb57565b60405162461bcd60e51b815260206004820152600a60248201527f6f6e6c792061646d696e000000000000000000000000000000000000000000006044820152606490fd5b6001600160a01b0390611751611680565b16600052600c6020526040600020600854906117976002670de0b6b3a764000061178c6117846001860196875490611640565b85549061164d565b0492019182546115d1565b90556008549055565b73ffffffffffffffffffffffffffffffffffffffff19600054916001600160a01b03906117d082851633146116f4565b16911617600055565b60ff7fcd5ed15c6e187e77e9aee88184c21f4f2182ab5827cb3b7e07fbedcd63f03300541661180457565b60405163d93c066560e01b8152600490fd5b6001600160a01b03169060405190602082019063a9059cbb60e01b8252336024840152604483015260448252608082019082821067ffffffffffffffff8311176118af57602092600092604052519082855af1156118a3576000513d61189a5750803b155b6118825750565b60249060405190635274afe760e01b82526004820152fd5b6001141561187b565b6040513d6000823e3d90fd5b634e487b7160e01b600052604160045260246000fd5b60ff7ff0c57e16840df040f15088dc2f81fe391c3923bec73e23a9662efc9c229c6a005460401c16156118f457565b604051631afcd79f60e31b8152600490fdfea164736f6c6343000818000a",
  "devdoc": {
    "errors": {
      "EnforcedPause()": [
        {
          "details": "The operation failed because the contract is paused."
        }
      ],
      "ExpectedPause()": [
        {
          "details": "The operation failed because the contract is not paused."
        }
      ],
      "InvalidInitialization()": [
        {
          "details": "The contract is already initialized."
        }
      ],
      "NotInitializing()": [
        {
          "details": "The contract is not initializing."
        }
      ],
      "ReentrancyGuardReentrantCall()": [
        {
          "details": "Unauthorized reentrant call."
        }
      ],
      "SafeERC20FailedOperation(address)": [
        {
          "details": "An operation with an ERC-20 token failed."
        }
      ]
    },
    "events": {
      "Initialized(uint64)": {
        "details": "Triggered when the contract has been initialized or reinitialized."
      },
      "Paused(address)": {
        "details": "Emitted when the pause is triggered by `account`."
      },
      "Unpaused(address)": {
        "details": "Emitted when the pause is lifted by `account`."
      }
    },
    "kind": "dev",
    "methods": {
      "paused()": {
        "details": "Returns true if the contract is paused, and false otherwise."
      }
    },
    "version": 1
  },
  "userdoc": {
    "kind": "user",
    "methods": {},
    "version": 1
  },
  "storageLayout": {
    "storage": [
      {
        "astId": 1360,
        "contract": "contracts/UniswapV3LPStakingUpgradeable.sol:UniswapV3LPStakingUpgradeable",
        "label": "admin",
        "offset": 0,
        "slot": "0",
        "type": "t_address"
      },
      {
        "astId": 1362,
        "contract": "contracts/UniswapV3LPStakingUpgradeable.sol:UniswapV3LPStakingUpgradeable",
        "label": "updater",
        "offset": 0,
        "slot": "1",
        "type": "t_address"
      },
      {
        "astId": 1365,
        "contract": "contracts/UniswapV3LPStakingUpgradeable.sol:UniswapV3LPStakingUpgradeable",
        "label": "positionManager",
        "offset": 0,
        "slot": "2",
        "type": "t_contract(INonfungiblePositionManager)2195"
      },
      {
        "astId": 1367,
        "contract": "contracts/UniswapV3LPStakingUpgradeable.sol:UniswapV3LPStakingUpgradeable",
        "label": "token0",
        "offset": 0,
        "slot": "3",
        "type": "t_address"
      },
      {
        "astId": 1369,
        "contract": "contracts/UniswapV3LPStakingUpgradeable.sol:UniswapV3LPStakingUpgradeable",
        "label": "token1",
        "offset": 0,
        "slot": "4",
        "type": "t_address"
      },
      {
        "astId": 1371,
        "contract": "contracts/UniswapV3LPStakingUpgradeable.sol:UniswapV3LPStakingUpgradeable",
        "label": "feePool",
        "offset": 20,
        "slot": "4",
        "type": "t_uint24"
      },
      {
        "astId": 1373,
        "contract": "contracts/UniswapV3LPStakingUpgradeable.sol:UniswapV3LPStakingUpgradeable",
        "label": "tickLower",
        "offset": 23,
        "slot": "4",
        "type": "t_int24"
      },
      {
        "astId": 1375,
        "contract": "contracts/UniswapV3LPStakingUpgradeable.sol:UniswapV3LPStakingUpgradeable",
        "label": "tickUpper",
        "offset": 26,
        "slot": "4",
        "type": "t_int24"
      },
      {
        "astId": 1377,
        "contract": "contracts/UniswapV3LPStakingUpgradeable.sol:UniswapV3LPStakingUpgradeable",
        "label": "totalStaked",
        "offset": 0,
        "slot": "5",
        "type": "t_uint256"
      },
      {
        "astId": 1379,
        "contract": "contracts/UniswapV3LPStakingUpgradeable.sol:UniswapV3LPStakingUpgradeable",
        "label": "tokenRewards",
        "offset": 0,
        "slot": "6",
        "type": "t_address"
      },
      {
        "astId": 1381,
        "contract": "contracts/UniswapV3LPStakingUpgradeable.sol:UniswapV3LPStakingUpgradeable",
        "label": "rps",
        "offset": 0,
        "slot": "7",
        "type": "t_uint256"
      },
      {
        "astId": 1383,
        "contract": "contracts/UniswapV3LPStakingUpgradeable.sol:UniswapV3LPStakingUpgradeable",
        "label": "globalIndex",
        "offset": 0,
        "slot": "8",
        "type": "t_uint256"
      },
      {
        "astId": 1385,
        "contract": "contracts/UniswapV3LPStakingUpgradeable.sol:UniswapV3LPStakingUpgradeable",
        "label": "lastUpdated",
        "offset": 0,
        "slot": "9",
        "type": "t_uint256"
      },
      {
        "astId": 1387,
        "contract": "contracts/UniswapV3LPStakingUpgradeable.sol:UniswapV3LPStakingUpgradeable",
        "label": "totalStaker",
        "offset": 0,
        "slot": "10",
        "type": "t_uint256"
      },
      {
        "astId": 1389,
        "contract": "contracts/UniswapV3LPStakingUpgradeable.sol:UniswapV3LPStakingUpgradeable",
        "label": "timeUnlock",
        "offset": 0,
        "slot": "11",
        "type": "t_uint256"
      },
      {
        "astId": 1397,
        "contract": "contracts/UniswapV3LPStakingUpgradeable.sol:UniswapV3LPStakingUpgradeable",
        "label": "stakers",
        "offset": 0,
        "slot": "12",
        "type": "t_mapping(t_address,t_struct(StakerInfo)1345_storage)"
      },
      {
        "astId": 1402,
        "contract": "contracts/UniswapV3LPStakingUpgradeable.sol:UniswapV3LPStakingUpgradeable",
        "label": "stakedNFTs",
        "offset": 0,
        "slot": "13",
        "type": "t_mapping(t_uint256,t_struct(StakedNFT)1338_storage)"
      },
      {
        "astId": 1406,
        "contract": "contracts/UniswapV3LPStakingUpgradeable.sol:UniswapV3LPStakingUpgradeable",
        "label": "newStakers",
        "offset": 0,
        "slot": "14",
        "type": "t_mapping(t_address,t_bool)"
      },
      {
        "astId": 1410,
        "contract": "contracts/UniswapV3LPStakingUpgradeable.sol:UniswapV3LPStakingUpgradeable",
        "label": "stakerToNumberStakeNFT",
        "offset": 0,
        "slot": "15",
        "type": "t_mapping(t_address,t_uint256)"
      },
      {
        "astId": 1416,
        "contract": "contracts/UniswapV3LPStakingUpgradeable.sol:UniswapV3LPStakingUpgradeable",
        "label": "stakerToIndexToNFTID",
        "offset": 0,
        "slot": "16",
        "type": "t_mapping(t_address,t_mapping(t_uint256,t_uint256))"
      }
    ],
    "types": {
      "t_address": {
        "encoding": "inplace",
        "label": "address",
        "numberOfBytes": "20"
      },
      "t_bool": {
        "encoding": "inplace",
        "label": "bool",
        "numberOfBytes": "1"
      },
      "t_contract(INonfungiblePositionManager)2195": {
        "encoding": "inplace",
        "label": "contract INonfungiblePositionManager",
        "numberOfBytes": "20"
      },
      "t_enum(statusNFT)1330": {
        "encoding": "inplace",
        "label": "enum UniswapV3LPStakingUpgradeable.statusNFT",
        "numberOfBytes": "1"
      },
      "t_int24": {
        "encoding": "inplace",
        "label": "int24",
        "numberOfBytes": "3"
      },
      "t_mapping(t_address,t_bool)": {
        "encoding": "mapping",
        "key": "t_address",
        "label": "mapping(address => bool)",
        "numberOfBytes": "32",
        "value": "t_bool"
      },
      "t_mapping(t_address,t_mapping(t_uint256,t_uint256))": {
        "encoding": "mapping",
        "key": "t_address",
        "label": "mapping(address => mapping(uint256 => uint256))",
        "numberOfBytes": "32",
        "value": "t_mapping(t_uint256,t_uint256)"
      },
      "t_mapping(t_address,t_struct(StakerInfo)1345_storage)": {
        "encoding": "mapping",
        "key": "t_address",
        "label": "mapping(address => struct UniswapV3LPStakingUpgradeable.StakerInfo)",
        "numberOfBytes": "32",
        "value": "t_struct(StakerInfo)1345_storage"
      },
      "t_mapping(t_address,t_uint256)": {
        "encoding": "mapping",
        "key": "t_address",
        "label": "mapping(address => uint256)",
        "numberOfBytes": "32",
        "value": "t_uint256"
      },
      "t_mapping(t_uint256,t_struct(StakedNFT)1338_storage)": {
        "encoding": "mapping",
        "key": "t_uint256",
        "label": "mapping(uint256 => struct UniswapV3LPStakingUpgradeable.StakedNFT)",
        "numberOfBytes": "32",
        "value": "t_struct(StakedNFT)1338_storage"
      },
      "t_mapping(t_uint256,t_uint256)": {
        "encoding": "mapping",
        "key": "t_uint256",
        "label": "mapping(uint256 => uint256)",
        "numberOfBytes": "32",
        "value": "t_uint256"
      },
      "t_struct(StakedNFT)1338_storage": {
        "encoding": "inplace",
        "label": "struct UniswapV3LPStakingUpgradeable.StakedNFT",
        "members": [
          {
            "astId": 1332,
            "contract": "contracts/UniswapV3LPStakingUpgradeable.sol:UniswapV3LPStakingUpgradeable",
            "label": "owner",
            "offset": 0,
            "slot": "0",
            "type": "t_address"
          },
          {
            "astId": 1334,
            "contract": "contracts/UniswapV3LPStakingUpgradeable.sol:UniswapV3LPStakingUpgradeable",
            "label": "liquidity",
            "offset": 0,
            "slot": "1",
            "type": "t_uint256"
          },
          {
            "astId": 1337,
            "contract": "contracts/UniswapV3LPStakingUpgradeable.sol:UniswapV3LPStakingUpgradeable",
            "label": "status",
            "offset": 0,
            "slot": "2",
            "type": "t_enum(statusNFT)1330"
          }
        ],
        "numberOfBytes": "96"
      },
      "t_struct(StakerInfo)1345_storage": {
        "encoding": "inplace",
        "label": "struct UniswapV3LPStakingUpgradeable.StakerInfo",
        "members": [
          {
            "astId": 1340,
            "contract": "contracts/UniswapV3LPStakingUpgradeable.sol:UniswapV3LPStakingUpgradeable",
            "label": "balance",
            "offset": 0,
            "slot": "0",
            "type": "t_uint256"
          },
          {
            "astId": 1342,
            "contract": "contracts/UniswapV3LPStakingUpgradeable.sol:UniswapV3LPStakingUpgradeable",
            "label": "index",
            "offset": 0,
            "slot": "1",
            "type": "t_uint256"
          },
          {
            "astId": 1344,
            "contract": "contracts/UniswapV3LPStakingUpgradeable.sol:UniswapV3LPStakingUpgradeable",
            "label": "pendingReward",
            "offset": 0,
            "slot": "2",
            "type": "t_uint256"
          }
        ],
        "numberOfBytes": "96"
      },
      "t_uint24": {
        "encoding": "inplace",
        "label": "uint24",
        "numberOfBytes": "3"
      },
      "t_uint256": {
        "encoding": "inplace",
        "label": "uint256",
        "numberOfBytes": "32"
      }
    }
  }
}